:1000000078430020E94700004BE701001948000051
:1000100019480000194800001948000000000000BD
:10002000000000000000000000000000E9450000A2
:100030001948000000000000A145000033E701005E
:10004000A9470000A51B0100A9470000A94700001F
:10005000A9470000A9470000A9470000A9470000E0
:10006000A9470000A9470000A9470000A9470000D0
:10007000A9470000A9470000A9470000A9470000C0
:10008000A9470000A9470000A9470000A9470000B0
:10009000A9470000A9470000A9470000A9470000A0
:1000A000A9470000A9470000A9470000A947000090
:1000B000A9470000A9470000A9470000A947000080
:1000C000A9470000A9470000A9470000A947000070
:0C00D000A9470000A9470000A947000054
:0400DC00FFFFFFFF24
:1000E00001F0FF01102A2BDB10F0070F08D010F8E9
:1000F000013B013A8B422DD010F0070F42B3F6D1ED
:10010000F0B441EA012141EA014122F007047FF005
:1001100000070023F0E80256083C85EA010586EA5C
:10012000010685FA47F5A3FA87F586FA47F6A5FA98
:1001300087F68EB9EED1F0BC01F0FF0102F00702A4
:1001400032B110F8013B013A83EA010313B1F8D14F
:100150000020704701387047002D06BF3546033830
:10016000073815F0010F07D1013015F4807F02BF69
:10017000013015F4C03F0130F0BC0138704700BFBA
:1001800053B94AB9002908BF00281CBF4FF0FF31FE
:100190004FF0FF3000F06EB9ADF1080C6DE904CE00
:1001A00000F006F8DDF804E0DDE9022304B0704752
:1001B0002DE9F047089D0E4604468C46002B40F082
:1001C00081808A42174645D9B2FA82F24AB1C2F119
:1001D000200106FA02F320FA01F1974041EA030CEC
:1001E00094404FEA174E230CBCFBFEF6B9B20EFB4F
:1001F00016CC43EA0C4306FB01F0984209D9FB18E0
:1002000006F1FF3C80F01581984240F21281023ED7
:100210003B441B1AA4B2B3FBFEF00EFB103344EABE
:10022000034400FB01F1A14209D93C1900F1FF335D
:1002300080F00181A14240F2FE8002383C44641A01
:1002400040EA064000211DB1D4400023C5E9004327
:10025000BDE8F08702B9FFDEB2FA82F2002A4FD180
:10026000CB1B4FEA174E1FFA87F80121B3FBFEFCA8
:10027000260C0EFB1C3346EA034608FB0CF3B34284
:1002800007D9BE190CF1FF3002D2B34200F2EB8065
:100290008446F61AA3B2B6FBFEF00EFB106643EAE4
:1002A000064408FB00F8A04507D93C1900F1FF33CC
:1002B00002D2A04500F2D2801846A4EB080440EA1E
:1002C0000C40C0E78B4208D9002D00F0AF80002120
:1002D000C5E900060846BDE8F087B3FA83F10029B6
:1002E00049D1B34202D3824200F2BB80841A66EB4A
:1002F000030301209C46002DAAD0C5E9004CA7E7C6
:10030000C2F120039740D8409140DE404FEA174E9B
:1003100008434FEA104CB6FBFEF11FFA87F80EFBBC
:1003200011664CEA064601FB08F3B34204FA02F4F4
:1003300009D9BE1901F1FF3C80F08E80B34240F232
:100340008B8002393E44F31A86B2B3FBFEF00EFBFB
:10035000103346EA034600FB08F3B34207D9BE193F
:1003600000F1FF3C74D2B34272D902383E44F31A12
:1003700040EA01417AE7C1F1200703FA01F422FAC9
:1003800007F31C4320FA07F906FA01F34FEA144C6D
:10039000FE4049EA03094FEA1943B6FBFCFE1FFA87
:1003A00084F80CFB1E6643EA06460EFB08FAB245CB
:1003B00002FA01F200FA01F308D9A6190EF1FF3092
:1003C00048D2B24546D9AEF1020E2644A6EB0A0643
:1003D0001FFA89F9B6FBFCF00CFB106649EA0646E9
:1003E00000FB08F8B04507D9A61900F1FF3C2DD253
:1003F000B0452BD90238264440EA0E40A6EB080649
:10040000A0FB02894E45C446CE4618D315D075B31D
:10041000B3EB0C0266EB0E0606FA07F722FA01F3BD
:10042000CE401F43C5E90076002111E72946284642
:100430000EE76646EDE6184601E74345E7D2B8EB1E
:10044000020C69EB04040138A646E0E76046D3E7F6
:1004500060468CE78646B9E7614674E702383C445B
:100460002BE7084647E7ACF1020C3E4411E729466A
:10047000EEE600BF704700BF10F8012B11F8013BFA
:10048000012A28BF9A42F7D0D01A7047034613F8C2
:10049000012B002AFBD1181A013870470000000018
:1004A0002DE9F041D0E90BC7D0F828800CEB070408
:1004B0003034A0450E46154618D81B4F18A3D3E973
:1004C0000023ACFB0701FFF75BFEA4EB080420F060
:1004D0007F40306012A3D3E90023A4FB0701FFF79C
:1004E0004FFE20F07F402860BDE8F0810E4C0CA349
:1004F000D3E90023A8FB0401FFF742FE20F07F436D
:1005000007F130003360A0FB040105A3D3E9002309
:10051000FFF736FE20F07F402860BDE8F08100BF85
:100520008D49FD1A0700000000CA9A3B0000000038
:100530002DE9F04FB34C94F84E608FB006F00106F1
:10054000002800F0CE81B6BB94F8392094F82D3005
:1005500094F8290004EB820204EB8303FF2100F0EE
:100560000300D2F83C80D3F8309084F82A1010F0C1
:100570007BFD94F84E00410700F127814D4631463E
:1005800015F8020BC0F380100AF0A6F80368C9F84A
:1005900002308388AB800368C8F802308388A8F8EB
:1005A000063099F800305A060AD413F00E0F40F0C6
:1005B000E180636A93B10C2630460FB0BDE8F08F3E
:1005C000062109F1020008F0EDFC002800F0368257
:1005D00099F8003013F00E0FEBD0CBE00CF084FA5A
:1005E0008246002800F04F820CF08AFA83460028E9
:1005F00000F062820DF070FC0546002800F0598280
:100600004FF6FF73806FAB8505F11C030B93002839
:1006100000F0358205F16C0205F1680108F0CEFCAE
:10062000B5F86430784995F8DC7095F83D2095F878
:100630004000C5F830A10B4043F4887327F0030C49
:1006400095F8261185F8DCC0002743F0010302F07D
:100650003F0262F07F02A5F8643067F300004FF0BC
:100660001B1321F0030185F83D2085F84000062288
:100670006648EB65664B85F826112866A5F8C42008
:10068000C5F81C31C5E9137785F83F706F866F6335
:100690006F65A5F8C870A5F8CC70A5F8E87085F866
:1006A000EA70C5F80071A5F80471A5F81871C5F8CD
:1006B0002071A5F8247185F82F71AF67A5F87C70BB
:1006C00095F8720195F89A1195F87E2095F85231B7
:1006D000A5F8507167F3C30122F01F0223F007034E
:1006E00067F3041085F89A1185F87E2085F8523159
:1006F000A5F87071A5F89871A5F8A47185F8720134
:100700000DF000FFA5F8D6000DF002FFD5F8A821E6
:10071000404BA5F8D8001340C5F8A8310DF0FEFEF7
:1007200095F8AC3160F3020385F8AC310DF0FCFEB6
:10073000C4E911AB0B9B636295F8AC2195F82010CE
:10074000C5F8C071030103F0700322F0780213436F
:1007500067F30001C5E96E77C5E96C77C5E90577F0
:10076000ED6185F8AC3185F8201011F037FE0028D6
:1007700040F06E8194F828300121C3F342030DA8A4
:100780008DF8343008F092FD002800F09F8099F831
:10079000003003F00F03022B00F1FF323CD0012B9D
:1007A00000F05A8198F801001030C000002B40F092
:1007B000478199F801301033DB0003F54D7108448F
:1007C00003F59A7303FB020031E0C0F3C000324628
:1007D00004F14F0110F00AFEFF2884F82A0002D02D
:1007E000304610F0E1FC0748494610F057FC054838
:1007F000414610F053FC99F800305A067FF5D5AE0B
:10080000DEE600BF5821002080F8FFFF48014801C4
:100810007F4101000000FFF699F801301033DB0042
:1008200000FB03F000F5AA70642303FB020094F8B8
:100830002070AB4AE4610025312365F30007A0FB7B
:100840000201236084F82070A3A3D3E90023C4E944
:100850000555C4E90155FFF793FCB4F84C80E060FE
:1008600009F034FF0746B8F1000F08D199F800509D
:1008700005F00F05A5F10105B5FA85F56D0994F8A8
:100880002820E36865F3000212F0010584F82820AF
:1008900000F08580DFF85C929249049300200225E5
:1008A0000DF1300801930591CDE907980321CDE9B9
:1008B000020006942A4600903B460C9509F054FE2F
:1008C00041460CF09FF9002800F0A580636A002BD8
:1008D0003FF471AE0CF008FD0C2630460FB0BDE8B9
:1008E000F08F002E3FF467AE20460CF0B3F984423F
:1008F0000CD07D4A7D497E4840F255731DF0F7F9D2
:10090000404080F311884FF0030002DF94F8283054
:10091000D8070DAD0ED502220D920321754B00951F
:100920000122002009F08CFE29460CF06BF900280A
:1009300040F0C780022203216E4B009500200D92EB
:1009400009F07EFE29460CF05DF9002840F09D80FC
:1009500069480CF0BBF9002840F0838067480CF030
:1009600085F984420CD0604A6049614840F277734F
:100970001DF0BDF9404080F311884FF0030002DF05
:10098000636A0BB10CF0B0FC94F84E3000266FF3A4
:100990000003304684F84E300FB0BDE8F08F584861
:1009A000584ADFF850E1DFF83CC10694A8FB00018B
:1009B0004FF0910909FB081103F24718C2F80080B3
:1009C0004FF00209049309920DF1300842A3D3E9D4
:1009D00000234FF6FF7ACDE907E80295CDF8309075
:1009E000CDF814C0CDF80CA0FFF7CAFB4A46CDE9FC
:1009F00000503B462846032109F060FD41460CF0BB
:100A000001F900287FF462AF94F84E3043F00103FF
:100A100084F84E30D0E53C4905914AF2D832009234
:100A2000CDE90798CDE90300CDE9010006943B46E6
:100A3000012203210C9509F097FDDFE71226BBE5A3
:100A4000062B3FF4B6AE4FF4DA734FF41B70B9E6E1
:100A50000CF04AFC0326AFE54FF4F2734FF47F70BD
:100A6000B0E6214A2949224840F274731DF03FF94B
:100A7000404080F311884FF0030002DF6EE705F17C
:100A80007000A867C6E5072696E51C480CF0EEF84E
:100A900084423FF490AD40F26E73134A13491448F8
:100AA0001DF025F9404080F311884FF0030002DF6C
:100AB00081E558460CF02AF850460CF01BF8072642
:100AC0007AE50E480CF0D2F884423FF474AD4FF44E
:100AD000EC63E2E7AFF300808D49FD1A07000000E8
:100AE00000CA9A3BC1CF0000387802002879020082
:100AF000F07502003DBB0000742100205821002049
:100B0000002AE784B021002061D200002077020093
:100B10002DE9F04F044690F8E93090F8E800834260
:100B20008BB00D4616460ED0C01A00F00300022806
:100B30001BD094F82D2194F82C319A4230D100200A
:100B40000BB0BDE8F08F94F8522112F00108F0D1FB
:100B500094F805C194F80411614500F06F83981E64
:100B6000012284F8E90084F8EA2094F8983194F896
:100B700099219A4206D094F89A2102F0060104299C
:100B800000F09F8394F8EA707A1E052A00F24883E9
:100B9000DFE812F05C00E002620246030903C401D0
:100BA000294808F0B7F958B394F82C3184F82D315E
:100BB0000379022243F0030342710371C271D4F836
:100BC000B03194F82E2102722BB394F85221910780
:100BD00021D494F8AB21D2071DD4D4F8BC21934280
:100BE00004BF1A68C4F8BC21D4F8B421B2B91A6899
:100BF000026018600368C4E96D000BB9C4F8C00155
:100C0000B4F8CC0000289AD1B4F8C630012B0ED924
:100C1000A4F8CC3093E7D4F8B42172B1D4F8B83149
:100C20001A68026018600368C4F8B801E5E7013388
:100C3000A4F8CC300BB0BDE8F08F0360C4E96C00C1
:100C4000C4F8B801D9E700BF1C240020A64F3B68B8
:100C5000002B00F0FB84B4F83680628E94F80631E5
:100C60009044B04413F003031FFA88F840F08084E6
:100C7000B4F8EC90A8EB09021FFA82FA12043FF5CF
:100C800058AF94F8701194F8712194F8040184F825
:100C900005018A4294F8E80084F8E90009D094F844
:100CA000722102F00702052A04BF84F87111A4F82A
:100CB000CC303B689C4204BF00233B60D4F80071F9
:100CC000002F00F07F853868002800F07B85B4F89D
:100CD0000831E28D4168C4F800119342B4F80A115A
:100CE000B4F80CC100F0C486A28DFA804FF0110E4A
:100CF0000022FB833984A7F822C087F804E03A7702
:100D000039460BF009FF0BF011FF2368002B09DABD
:100D1000D4E9011223F000438A422CBFA9186918B4
:100D20002360CD1AE38DB4F8087113FB0AF39BB26C
:100D3000B3FBF7F117FB01F292B293421FFA81FB6A
:100D400080F02E85D31A694840F2E24202FB03F399
:100D5000A3FB000162A3D3E90023FFF711FA20F0FF
:100D60007F400544628E94F93D30A9EB0808D844D1
:100D70003244904440F2E249002BA4F8328009FB4F
:100D800007F7C0F22F855A4A5A495B4840F6551377
:100D90001CF0ADFF404080F311884FF0030002DFEC
:100DA0004FF000083E46B4F80C21B4F80A11534B3A
:100DB0005348218642F2107C0CFB02723B443844BB
:100DC000B3FBF7F301F1060C013AB2FBF7F2B0FB0B
:100DD000F7F798B2A4F8C6206045B4F80821A4F843
:100DE000D200A4F8CA70E28502DD401A063880B24B
:100DF00094F80631A4F8CE00580744BF0023A4F8A5
:100E0000C8300221012013F029FA00220221814674
:100E1000012008F021F93B494FF4E472204608F024
:100E2000ADF8C21C5FFA82FA374B0094524601219A
:100E3000002009F005FC30F002030CD02C4A3349A5
:100E40002D4840F684131CF052FF404080F3118877
:100E50004FF0030002DF254BA6FB0367304620A3BB
:100E6000D3E900233946FFF78BF9294AE368049355
:100E700020F07F4BABFB0223072000FB0B33B01AA3
:100E800067EB0301089406944FF47A720024002360
:100E9000204F214E079705960394FFF771F92B46D3
:100EA000CDE901B0CDF8008020465246012109F07D
:100EB0005BFB30F002030CD00D4A14490E4840F69B
:100EC0009E131CF014FF404080F311884FF0030084
:100ED00002DFB9F1000F40F0E4856FF08B002FE6E0
:100EE0008D49FD1A070000009823002000CA9A3B94
:100EF0003479020050760200F07502007FC3C90108
:100F0000FF596202D021002009DB0000747A020040
:100F10008D49FD1AB1DA0000A1090100618EE28E4F
:100F200094F8EC300A44324496B2DA07194600F1DC
:100F30001582B4F8EE20B61A30043FF5FAAD94F8F5
:100F4000642094F8658094F8E800B4F8627084F83E
:100F5000E90013F01C0F02F0070908F0070840F041
:100F6000A985B4F8606013F0E00F08D094F865200C
:100F70005B0963F3020284F865204FF4A47794F8C8
:100F8000AC3194F86420D4F80051C3F3C00363F388
:100F9000C30284F86420002D00F0AC852868002886
:100FA00000F0A88594F864E094F865204368C4F8DC
:100FB00000318907CEF3020C0EF00703C2F3020ED4
:100FC00002F0070202D4994500F07C87A38DEB80E4
:100FD0001522002385F81DC085F81EE02A712B77A5
:100FE00029460BF099FDD4F80051002D00F0E5855D
:100FF0002868002800F0E185B4F860304268C4F841
:101000000021B3420AD3B3F5A47F07D8B4F8623005
:10101000BB4203D3B3F5A47F40F26887A4F86060B5
:10102000A4F862702B7FA28DEA8043F003030221B3
:10103000092229712B776A77B4F85E30B4F85C2006
:101040002B841523AA84EB7729466F84EE840BF05A
:1010500063FD0BF06BFD6CE594F8EC2012F00305DA
:1010600000F0248294F93D30002BBFF662AD012DD3
:101070007FF45FADB54807F04DFF064600283FF40A
:1010800058AD0379042243F003030D2100F1080554
:1010900003714171C2710C21284610F09FFFB368A3
:1010A000F268C4F8FA20C4F8F630D4F8B0313269E6
:1010B000C4F89C20002B00F0E28694F8522195079A
:1010C00000F1DD8694F8AB21D00700F1D886D4F882
:1010D000BC21934204BF1A68C4F8BC21D4F8B421DF
:1010E000002A01F04881D4F8B8311A6832601E60D5
:1010F0003368C4F8B861002B01F0CA800BF03AFDE8
:10110000014600283FF415AD0B7FA28DCA8043F045
:10111000030302251720032248770B770D71CA7746
:10112000D4F85531D4F859214A620B6294F85331FE
:1011300081F8283094F8543181F8293008680BF090
:10114000EBFC0BF0F3FC94F8EC3065F3010384F84E
:10115000EC30EEE4618EE28E94F8EC300A443244D6
:10116000D90796B200F15581B4F8F220B61A3604C8
:101170003FF5DFAC94F8E83084F8E930234604F119
:10118000380053F8ED2FA2631B790371052108F095
:101190008DF894F83D30012260F3050384F83D306A
:1011A00084F8C421C5E4694807F0B4FE00283FF480
:1011B000C0AC94F8E83084F8E93001230279437137
:1011C000D4F8B03142F0030212210271C171002B38
:1011D00000F0DB8294F85221950700F1D68294F852
:1011E000AB21D10700F1D182D4F8BC21934204BFD6
:1011F0001A68C4F8BC21D4F8B421002A01F05D803B
:10120000D4F8B8311A68026018600368C4F8B801ED
:10121000002B00F0E284B4F8CA30A4F8CC3088E4A3
:101220004B4A4C494C4840F2BF331CF060FD4040F3
:1012300080F311884FF0030002DF7AE494F819116B
:1012400094F81871B94253D194F8251194F8247187
:10125000B94200F01983C91BCF077FF56AAC94F837
:101260002631D80740F14A879F0740F134870BF0B9
:1012700081FC014600B394F8243184F82531037FC2
:10128000A28DC28043F003030B77022006220C23B9
:1012900008714A77CB7794F82701B4F82821B4F87D
:1012A0002A31A1F8233081F82000A1F82120086814
:1012B0000BF032FC0BF03AFC94F8E80094F8E930BB
:1012C00032E402F00701062901F2988101A050F8EA
:1012D00021F000BFE1160000850B0000850B000027
:1012E000850B00005D1600005D160000850B0000F8
:1012F000C91BC8077FF51DAC94F8DC3013F001075B
:1013000000F00A840BF036FC01460028D4D094F893
:10131000183184F81931A78DC0F82080C0F82480D6
:10132000022309200A7F0B714877D4F82031CF803F
:1013300042F00302C3F307270A771A0CC87781F833
:10134000203081F8217081F82220B0E71C24002091
:101350003479020050760200F075020002200BF092
:10136000EBFB074600283FF4E4ABBA4807F0D2FD98
:10137000054600283FF4DDAB94F8EC306FF3000332
:10138000C3F38200C3F3421250EA020884F8EC303F
:10139000DBB240F0828694F8E820A4F8EE809B0748
:1013A00084F8E92000F13D874346414605226A71F1
:1013B00085F808802A796B72D4F8B031698142F0DF
:1013C000030218212A71E971002B00F00A8494F8B5
:1013D0005221970700F1058494F8AB21D60700F15C
:1013E0000084D4F8BC21934204BF1A68C4F8BC211D
:1013F000D4F8B421002A00F09187D4F8B8311A68E3
:101400002A601D602B68C4F8B851002B7FF491ABA3
:1014100018E1904807F07EFD00283FF48AAB238E48
:1014200094F8EC10027933440633A4F8F23042F019
:10143000030223466FF300010826012584F8EC100F
:1014400046710271C57153F8ED2F82601B790373E9
:10145000D4F8B031B4F8F220A0F80D20002B00F041
:10146000338394F85221920700F12E8394F8AB2134
:10147000D70700F12983D4F8BC21934204BF1A682E
:10148000C4F8BC21D4F8B421002A00F02C87D4F889
:10149000B8311A68026018600368C4F8B801002BFC
:1014A0007FF447ABC4F8C001FFF743BB694807F0BE
:1014B00031FD804600283FF43CAB94F93D30002BD1
:1014C00000F1040980F26A8494F87E301B0700F171
:1014D0005D8694F8ED50002D00F01185037994F8A5
:1014E000DC2043F00303D607037140F18086D4F873
:1014F0001C31580740F17B861122032388F80950DC
:1015000088F8072088F8083088F80570D4F8B031DA
:10151000002284F8ED20002B00F04A8594F8522137
:10152000910700F1458594F8AB21D20700F1408581
:10153000D4F8BC21934204BF1A68C4F8BC21D4F883
:10154000B421002A00F05887D4F8B8311A68C8F8D6
:101550000020C3F80080C4F8B881D8F80030002B10
:1015600000F0978594F8E83084F8E930FFF7E1BAA5
:1015700001200BF0E1FA064600283FF4DAAA3548CC
:1015800007F0C8FC054600283FF4D3AA0BF0F2FA96
:1015900094F80611238E3268D4F8000150606FF37E
:1015A0000101434484F8061106332979C4F8006127
:1015B0009BB20C22A4F8EC3041F003016A71D4F81C
:1015C0001021D4F8B001244E29710021E971A6FB45
:1015D000021294F81461B4F808112E72C2F38F222B
:1015E000B4F80A61A5F80B10B4F80C11A5F80F10A7
:1015F000A5F80D60A5F81130A5F80920002800F025
:101600006E8294F852319E0700F1698294F8AB31F2
:10161000D90700F16482D4F8BC31984204BF036852
:10162000C4F8BC31D4F8B431002B00F06486D4F88F
:10163000B8311A682A601D602868C4F8B8510028BB
:101640007FF477AAC4F8C051FFF773BA3C60FFF784
:1016500002BB00BF1C2400205917B7D102F00702BB
:10166000B4F89CC1B4F8A011B4F89E91B4F8A2816A
:10167000A4F85EC0042AA4F8621000F0BA8494F8BA
:101680009A31062262F3020384F89A31D4F8007189
:10169000002F00F09A843868002800F096843B7F81
:1016A0004268B4F82CE0C4F8002143F0030302229E
:1016B0003B774FF0090A1523A7F806E0A7F820C0EA
:1016C00079843A71FB773946A7F82490A7F82680E9
:1016D00087F81DA00BF020FA0BF028FAFFF752BA9A
:1016E000DB4807F017FC00283FF44CAA94F89A3125
:1016F000B4F89E71B4F8A221A4F8D6700121A4F820
:10170000D82061F30203092284F89A3142710279E8
:10171000D4F8B031878142F003024FF0140CC1724B
:10172000C173002702711B21482280F807C047724D
:10173000017282728273002B00F01B8394F8522195
:10174000920700F1168394F8AB21D70700F11183BB
:10175000D4F8BC21934204BF1A68C4F8BC21D4F861
:10176000B421002A00F0FF85D4F8B8311A6802606D
:1017700018600368C4F8B801002B00F04385B4F882
:10178000CA30A4F8CC30FFF7FDB9D4F8B421002A50
:101790007FF436AD0360C4E96C00C4F8B80137E5E6
:1017A00007FB113340F2E242AA489BB202FB03F36B
:1017B000A3FB0001A4A3D3E90023FEF7E1FC2D1A4B
:1017C000FFF7D0BAA44AA549A5484FF40E631CF010
:1017D0008EFA404080F311884FF0030002DF386832
:1017E000FFF775BAE26C636C9A4E03FB1A23E3644D
:1017F00010F034FE804694F8DC00C0F3820010F054
:101800002FFE08EB000307FB03F39648E26C94F805
:10181000141103F5742303F23F23A0FB03034FEAE3
:10182000934A0AFB0BF07B080244963B9A4228BF7E
:101830001A4609FB01FC4FF0000EC4E91232A0FB6E
:10184000060181A3D3E90023C4F854C0C4F8E4E03E
:10185000C4F844A0FEF794FCD4F8103184468248C2
:10186000A0FB0330800A09FB00F0A0FB060176A371
:10187000D3E90023A5EB0C05FEF782FCA7EB0A06D3
:1018800020F07F48FFF78FBA94F8717194F87011C7
:101890008F4200F0B481754F3968002900F0E2846E
:1018A0008C427FF446A994F8721101F007010529D2
:1018B00000F2C2860FF2040E5EF821F0A9190000B2
:1018C00025190000D5180000290B0000290B000085
:1018D000290B000090073FF52CA90BF04BF90146AE
:1018E00000283FF4E9AC037F94F87221032060F3F1
:1018F0000202034384F87221A08D0B77022718237C
:101900000F714B77B4F87421B4F87631C880B4F80D
:1019100078010A84B4F87A214B840F238884CA841E
:10192000CB77C4E494F87381B8F1000F40F03585AB
:1019300094F93D30002BC0F2708594F8723194F820
:101940007C11C4F81081052262F30203012284F89D
:10195000723184F81421002900F01886B4F874312B
:10196000B3FBF1F3134413FB01F39BB294F8722120
:1019700094F80611A4F80831C2F3C0039B0021F0CB
:10198000070243F002031343B4F87811B4F87A2144
:1019900084F806310CF1FF3C84F805C1A4F80A1163
:1019A000A4F80C21FFF7C5B82948B4F83680B4F87C
:1019B000329007F0AFFA014600283FF47DAC94F86E
:1019C00072010A794FF0040C6CF3020042F003023A
:1019D0004FF0180C84F8720108EB09030A7181F8C2
:1019E00005C0B4F874C1B4F87601B4F87821A1F850
:1019F00008C03344B4F87AC148818A810F2000229C
:101A0000A1F811304FF0FF33C8714B758B75CB7552
:101A10000B764B768B76CB760B774B778B77204696
:101A2000A1F80EC00A74CA740A750BF03DFFB4F831
:101A3000CA30A4F8CC3094F8E80094F8E9303C605F
:101A4000FFF772B8AFF300808D49FD1A0700000060
:101A50001C24002000CA9A3B34790200607A0200FC
:101A6000F075020083DE1B435917B7D1982300207D
:101A7000228E8A427FF438A940F2E24202FB03FB45
:101A800042F21072B4F8C6E002FB0CB2013AB2FBAB
:101A9000FBF292B296457FF427A903233B71FFF72F
:101AA0002FB901221046022107F0D6FA6FF08B0001
:101AB000FFF746B8C3F3820060F3020284F86420A3
:101AC0004FF4A476FFF74FBAD4F8B421002A7FF47C
:101AD000DEAC0360C4E96C00C4F8B801DFE4D4F8FC
:101AE000B431002B7FF4A3AD2860C4E96C55C4F871
:101AF000B851A4E5A44AA549A54840F659631CF08D
:101B0000F6F8404080F311884FF0030002DF2868A8
:101B100094F8EC10FFF746BA9E4807F0FBF900284E
:101B20003FF4CAAB94F819219B4BC4F81C31013A1D
:101B3000092384F81921437194F93D108760C76027
:101B4000D4F81C310372C3F307221B0C4272837258
:101B50000279D4F8B0310029ACBF08210E2142F03F
:101B60000302C1710271002B00F0958194F852219B
:101B7000910700F1908194F8AB21D20700F18B819D
:101B8000D4F8BC21934204BF1A68C4F8BC21D4F82D
:101B9000B421002A00F03984D4F8B8311A68026000
:101BA00018600368C4F8B801002B00F02883B4F86B
:101BB000CA30A4F8CC30FFF77FBB734A734974482E
:101BC00040F685631CF093F8404080F311884FF095
:101BD000030002DF2868FFF70FBAC4F8C001FFF75F
:101BE0001ABBD4F8B421002A7FF407AC2B60C4E9F7
:101BF0006C55C4F8B851002B7EF49BAF22E594F8E5
:101C0000987194F89921BA4200F0FE8194F89A11E3
:101C100001F00702062A00F200850FF2080C5CF8BA
:101C200022F000BFCD1C0000290B0000290B000092
:101C3000290B0000411C0000411C0000290B000082
:101C4000B4F89C31A4F85E3001F00703B4F8A02189
:101C5000B4F89E91B4F8A281A4F86220042B00F09D
:101C600092830B46062262F3020384F89A31D4F879
:101C70000071002F00F068833868002800F064834A
:101C80003B7F4268B4F82CC0C4F8002143F0030342
:101C90003B77022209237B773A71B4F85E10B4F8DF
:101CA00062207A841523FB77A7F806C03984A7F849
:101CB00024903946A7F826800AF02EFF0AF036FF56
:101CC00094F8E80094F8E930FEF72EBF314807F0A9
:101CD00021F9034600283FF4EFAA94F89A21B4F8BA
:101CE0009E71B4F8A211A4F8D6700120A4F8D810FF
:101CF00060F30202092184F89A2159711979D4F804
:101D0000B0219F8141F003014FF0140CD872D873B9
:101D1000002719711B20482183F807C05F721872D1
:101D200099729973002A00F0048394F8521189077C
:101D300000F1FF8294F8AB11CF0700F1FA82D4F8DA
:101D4000BC118A4204BF1168C4F8BC11D4F8B411A4
:101D5000002900F04584D4F8B82111681960136097
:101D6000C4F8B8311A68002A7FF421AFC4F8C03132
:101D70001DE7D4F8B421002A7FF4F6AC0360C4E96F
:101D80006C00C4F8B801F7E434790200607A02000C
:101D9000F07502001C2400207F41010004F17F0641
:101DA00033462A4604F1EE0104F25D1011F0FCFD09
:101DB000D4F88B20C4F8AC20D4F87F00D4F883107A
:101DC000D4F88730C4F8A0002246C4F8A830C4F87C
:101DD000A41052F8981F94F89700526894F87E3037
:101DE000C4F8BD2094F8B820C4F8B91043F0080333
:101DF00065F3000042F0010284F8970084F87E3019
:101E000084F88F5084F8905084F8915084F8925060
:101E100084F8935084F8945084F8955084F8965040
:101E2000C4F8B0504946C4F8B45084F8B8202046ED
:101E30000BF008FFD4F8B031002B37D094F85221C2
:101E4000910733D494F8AB21D2072FD4D4F8BC2116
:101E5000934204BF1A68C4F8BC21D4F8B421002A04
:101E600000F0BF82D4F8B8311A68C8F80020C3F86F
:101E70000080D8F80030C4F8B881FFF770BBD4F800
:101E8000B421002A7FF42FA93360C4E96C66C4F83A
:101E9000B861FFF730B9D4F8B421002A7FF47CAEE2
:101EA0000360C4E96C00C4F8B8017DE6D4F8B4213D
:101EB000002AD7D1C8F80030C4E96C88C4F8B881CA
:101EC000FFF74DBB90457FF481A803232B71294672
:101ED0000AF022FED4F80051002D00F0008328689B
:101EE000002800F0FC824368C4F8003103232B7102
:101EF00029460AF011FE0AF019FEFEF71ABE04F197
:101F00007F0633462A4604F1EE0104F25D1011F01B
:101F10004BFDD4F88B20C4F8AC20D4F87F00D4F863
:101F20008310D4F88730C4F8A0002246C4F8A41067
:101F3000C4F8A83052F8981F94F8B8005268C4F852
:101F4000BD20C4F8B91094F87E2094F8971098F842
:101F5000043084F88F5042F0080241F0010165F32B
:101F60000000012684F87E2084F8905084F8915077
:101F700084F8925084F8935084F8945084F89550E3
:101F800084F89650C4F8B050C4F8B45084F8971050
:101F900084F8B80043F00303052288F8056088F848
:101FA000043088F80720D4F8B031002B7FF4B6AAAB
:101FB000D4F8B421002A7FF4C7AAC8F80030C4E9D5
:101FC0006C88C4F8B881FFF7C8BACF4ACF49D04867
:101FD00040F629531BF08BFE404080F311884FF0F0
:101FE000030002DF3868B4F85EC0B4F86210FFF78F
:101FF00056BBB4F8A421002A40F04E8184F89931F0
:10200000A4F8CC20FFF742BB94F8A82194F8A911BA
:1020100091423EF48EAD94F8AA1101F0030003281A
:1020200000F06C8200287EF484ADBA4806F072FF9E
:10203000014600283FF440A994F8AA3194F8AC2155
:1020400094F8AB71012060F30103C3F3820060F3E5
:102050000202C3F3421060F30612C7F34007087987
:1020600084F8AA3167F3C30284F8AC21C3F3820C6D
:1020700040F00300C3F34213032716220871CA710C
:1020800081F808C04B724F71002220460BF00CFC07
:102090008DE5C4F8C081FFF765BA238E334406335B
:1020A000A4F8EE300AF066FD3B68D4F800215A60CF
:1020B000C4F800710AF05EFD0368D4F800215A608C
:1020C00094F8EC30B4F8EE10C4F80001C3F38208C1
:1020D0005B09FFF76BB940F648338B4A8E498C4851
:1020E0001BF005FE404080F311884FF0030002DF33
:1020F00094F8E80094F8E930FEF716BD854806F03C
:1021000009FF00283FF4D8A894F8252194F8263137
:10211000013A84F82521027943F00103062184F86D
:10212000263142F003024171D4F8B03102710B2123
:102130006FF00E020C270172427205214FF0FF3240
:10214000C7718172C2720273002B00F0BE8094F8D6
:102150005221910700F1B98094F8AB21D20700F128
:10216000B480D4F8BC21934204BF1A68C4F8BC21DF
:10217000D4F8B421002A00F00382D4F8B8311A68E8
:1021800002601860C4F8B80103680DE549462046AE
:102190000BF058FDD4F8B031C3B394F8522197072F
:1021A00034D494F8AB21D60730D4D4F8BC21934270
:1021B00004BF1A68C4F8BC21D4F8B421002A00F086
:1021C0008681D4F8B8311A68C8F80020C3F80080B6
:1021D000C4F8B881D8F80030002B00F0818094F862
:1021E000523123F0030384F85231FFF7BBB90D23BA
:1021F00088F8085088F807300227FFF785B9C4F837
:10220000C001D4E4C4F8C001FFF7B9BAD4F8B421CE
:10221000002AD6D1C8F80030C4E96C88C4F8B88167
:10222000D8E70AF0A7FC1523A28D87F81C803B7124
:1022300094F864303868FA80C3F302037B7794F82B
:102240006530C3F30203BB7739460AF065FC0AF038
:102250006DFC94F8EC30B4F8EE10C3F382085B091F
:10226000FFF7A4B894F8723103F00703052B00F2CE
:10227000E38101A151F823F0A919000025190000FC
:10228000D5180000330B0000330B0000330B0000A7
:10229000C4F8C061FEF732BF94F89A01B4F8A67191
:1022A000A4F89E21002363F3020084F89A01A4F8A5
:1022B000A431A4F8A271FFF7E9B91A6802601860A6
:1022C0000368C4E96D00FEF7A3BFD4F8B421002A67
:1022D0007FF453AF0360C4E96C00C4F8B80153E75E
:1022E000C4F8C0817BE71A68026018600368C4E91B
:1022F0006D00FFF7D4B803682B6005602868C4E957
:102300006D55FFF79CB900BF34790200607A020076
:10231000F07502001C240020507602001A682A6022
:102320001D602B68C4E96D55002B7EF402ACFFF7ED
:1023300089B9D4F8B41100297FF40DAD1A60C4E94D
:102340006C33C4F8B8310DE5BD4ABE49BE4840F60D
:1023500029531BF0CCFC404080F311884FF0030060
:1023600002DF38688CE41A68026018600368C4E908
:102370006D00FFF701BA1A6832601E603368C4E965
:102380006D66FEF7B8BEB4F8A421002A40F08F8035
:1023900084F89971A4F8CC2069E4AC4806F0BAFD41
:1023A000014600283EF488AF037943F003030B7124
:1023B000112003220F23C8714A710B7294F87331F4
:1023C0004B72204600220BF06FFA94F8703184F8BB
:1023D000713100233B6094F8E80094F8E930FEF78F
:1023E000A3BB1A68C8F80020C3F80080D8F80030F2
:1023F000C4E96D88FFF7B3B81A68C8F80020C3F8BD
:102400000080C4E96D88FFF7A8B81A6802601860F8
:102410000368C4E96D00FFF7C7BB8C4806F07AFD7E
:10242000014600283EF448AF0379182243F0030325
:1024300003714271B4F87421B4F87631B4F87801BC
:102440000A81B4F87A214B8110238881CA81CB712B
:1024500094F87C310B74B4F87E31B4F88001B4F890
:102460008221A1F81130B4F88431A1F81300B4F836
:102470008601A1F81520B4F88821A1F81730B4F826
:102480008A31A1F81D30A1F81900A1F81B202046BF
:1024900042460BF009FA94F8703184F8713194F8DF
:1024A000E80094F8E930C7F80080FEF73DBB002053
:1024B0000B4660F30203A4F89E21B4F8A62184F829
:1024C0009A31A4F8A401A4F8A221FFF7D0BB1A689E
:1024D000C8F80020C3F80080C4E96D887AE6584A3D
:1024E0005849594840F668631BF001FC404080F3AE
:1024F00011884FF0030002DF2868F4E4080784F82D
:10250000A921C1F382024DD594F8AA21022161F3D9
:10251000840284F8AA2194F8AA2157064FEA52119E
:1025200038D5022161F3471284F8AA2194F8AA1140
:1025300094F864C094F8650094F8AB21C1F3820765
:102540000CF0070C00F00700C2F38002BC4508BF86
:1025500000275200B0EB511F42F001024FEA511127
:1025600008BF002142EA4112023B42EA87020621EB
:1025700084F8E93084F8EC2084F8EA10FEF702BB16
:102580001A6802601860C4E96D00FDE5B4F87631A0
:10259000FFF7ECB9C8070FD5012161F3471284F8A2
:1025A000AA21C3E7D10710D594F8AA21012161F32C
:1025B000840284F8AA21AEE711F0040118BF0421B7
:1025C00061F3471284F8AA21B0E712F004020ED09A
:1025D00094F8AA21042161F3840284F8AA219AE7DD
:1025E000116819601360C4E96D33FFF7BBBB94F841
:1025F000AA1162F3840184F8AA118CE7104A1449E5
:10260000114840F651531BF072FB404080F3118893
:102610004FF0030002DFFEF7B5BA094A0C490A4839
:1026200040F651531BF063FB404080F311884FF09C
:10263000030002DFFEF740BE40F655434DE500BF04
:1026400034790200607A0200F07502001C24002038
:1026500050760200000000002DE9F04F1C46136880
:102660000D46D3F800A031F82ECF2346174653F875
:102670000C6B8A78A4F80CC09A70D5F82A30A36045
:102680002B46814653F83A2FE26104F11C001B7976
:10269000037193B0052106F009FE94F8213000F093
:1026A0003F0060F30503012884F821300AD995F82A
:1026B0003F3003F01F02053AC3F304010B2A84F8EC
:1026C000221002D913B0BDE8F08F3A6896F8DC10FA
:1026D00000209060B5F83480A4F8128095F8362078
:1026E00095F8370042EA0022A2825B0963F3840175
:1026F0006B8EADF82C3086F8DC1040F2E24303FB21
:1027000008F80FF0ABFE834696F8DC00C0F38200B9
:102710000FF0A6FE584408FB00F0DFF824E395F81C
:1027200031C0A18ABC4A00F5742000F23F20AEFB04
:1027300000304FEA580E40F2E24303FB0CF3800CEA
:10274000AEF1960EA062E363C4F82CE0B5F838B0A1
:10275000B24842F2107303FB0B83424401F1060CB2
:10276000013BB2FBF8F2B3FBF8F3A6F8C63093B224
:1027700063454044A6F8D230B0FBF8F0A6F8CA0092
:1027800002DD5B1A063B9BB2A6F8CE302946A36851
:10279000C6F8E03051F81E0F2B7F8A88ADF8442030
:1027A0004FF4807CC3F38012A5F81CC08DF838204C
:1027B000C3F3401210908DF83C200A929AF82A0038
:1027C000BA7C0D910C920FF001F9DDE90C2105F1B5
:1027D0002B03002840F0ED80FF2AC5F82B009880DD
:1027E00005F1250300F0F180104605F11F020C935E
:1027F0000EF070FBAA7F0C9BBDF844101098C5F832
:1028000025000232AA77998096F8DC30618AA28A84
:10281000AA86C3F3820385F838306986A5F836B0F6
:1028200030460BF065FB29462082E8807D684846EB
:102830000AF072F9238AEB8014232B710A9B286813
:10284000002B00F0D18094F809E0237A94F80BC0B3
:10285000A17A94F8212041EA0C2143EA0E234B404F
:1028600042F040020121638484F82120297729461F
:102870000AF052F90AF05AF994F84900012100F0DF
:1028800007000FF00BFD664A00258146312300F258
:102890005240A0FB02013360C6E901555CA3D3E9B5
:1028A0000023FDF76DFCFA68D4F828C0A2F5AE74D9
:1028B000BDF82C2020F07F4040F2E24303FB0233BE
:1028C00002212A46F06001201C44A8EB0C0806F007
:1028D000C3FB50460AF0A8FE821C524BCDF800A064
:1028E000D2B22846012107F0ABFE0128A4EB09046F
:1028F00000F086809AF82830DB0779D430460BF058
:10290000F7FADFF81CB1A8FB0B8941A3D3E9002338
:10291000054649464046FDF733FC434A069620F0FB
:102920007F4AAAFB0223072101FB0A3340F245112B
:10293000BF6808913D4907913D490591B8EB0200F8
:1029400069EB0301F368049300264FF47A720023C5
:102950000396FDF715FC2EA3D3E900238446A4FBC0
:102960000B01CDE901ACFDF70BFC033520F07F40F6
:10297000EDB2313F3B4600902A463046012107F038
:10298000F3FD30F002030CD02A4A2B492B484FF4B8
:10299000A3731BF0ACF9404080F311884FF00300A3
:1029A00002DF01221046022113B0BDE8F04F06F00D
:1029B00053BB2846FF2A50F824CFC5F82BC0808887
:1029C000988005F125037FF40FAF0022BDF8441075
:1029D0001098C5F825209A809DF83830A5F8231066
:1029E000AB77C5F81F000FE79DF83C302B773EE72B
:1029F0000023012200931846114607F021FE7DE7CF
:102A00000AF040F982453FF475AF0DF0A5FF71E77C
:102A10008D49FD1A070000007FC3C901FF596202FA
:102A200000CA9A3B850901008D49FD1A2909010058
:102A3000A1090100307B0200747A0200F0750200E7
:102A400083DE1B4310B5054817F054FC044A1060A0
:102A5000836804491B68BDE8104018473A870200A4
:102A60003015002034870200014B1870704700BFFA
:102A7000362F002041F26702904210B5034616D867
:102A80000C4A1088518878B199420BD832F8044C1E
:102A900032F8022C241A5B1A6343511AB3FBF1F388
:102AA000184403E00432ECE79942EFD910BD42F23A
:102AB0001070FBE72087020008B5074B1868836891
:102AC00006495B689847064BB3F900001AF0BEFF51
:102AD000BDE80840FFF7CEBF301500201872020095
:102AE000EC2E002007B503F09BFC00230449009363
:102AF0000322044803F086FC03B05DF804FB00BF2A
:102B00002C720200E401002070B5002003F002FAEC
:102B1000054658BB164E1BF059FC164916480722AD
:102B200001F082F8344615491548072201F07CF877
:102B3000144B154844F8085F3560736003F0E6FEF7
:102B4000BFF35B8F54E8003F43F0010244E80021EB
:102B50000029F7D1BFF35B8FDB0703D40B48314665
:102B600023F06BFBBDE8704000F026B970BD00BFDC
:102B70003415002040870200478702005187020079
:102B800058870200E52A0000D001002088140020A8
:102B90001FB50F4C0F490394231D029304F1080342
:102BA000019304F10C03009304F1140204F11003E7
:102BB00019F03CF96369A3F26C73636123692046E1
:102BC000013B236104B0BDE8104018F0D5BE00BF42
:102BD00040150020628702000148FFF7D9BF00BFFF
:102BE0007487020038B523F055FD4FF47A730A4616
:102BF000A0FB030103FB0211074A084DC30B43EA84
:102C00004143CC0BD2E90010591A64EB0000C5E92E
:102C10000010C2E9003438BDA80E0020A00E00202C
:102C200008B503460A481A88A2F26C7242619A7883
:102C3000013A0261DA78C2601A7982605A79426098
:102C40009B79036018F098FEBDE80840FFF7CABF03
:102C50004015002010B5FFF7C5FF0849084C0023B8
:102C6000D1E900014FF47A72FDF78AFA2368034430
:102C700023602046BDE8104018F07EBEA00E002064
:102C80004015002070B50B4E0B4D0C4C0C4A3346D2
:102C90002021284619F040FE33460A4A20212046CA
:102CA00019F03AFE284600F099F92046BDE8704038
:102CB00000F0A8B940150020572F0020372F002022
:102CC000888702008E87020002490022012003F05B
:102CD00043BF00BFD92C000082B000238DF8043020
:102CE00042F62B23ADF80630084B0949019A1A60C9
:102CF000084A4A6001220A814FF6FF72CA81032204
:102D00000A740B6002B005F099BD00BFF82E0020D8
:102D100064150020192D000010B50B4679B1094942
:102D20001B8A0B814FF6FF73074C4B810022074B28
:102D30000C604A60064CCC601A6005F05FFF002012
:102D400010BD00BF88150020552D0000781500200B
:102D5000F82E002070B51946BDF81050134C03B181
:102D6000B5B9E379A0881844237A1844637A1844E3
:102D7000A37AC0180BD00E4B0E4A03CB1060184636
:102D8000516030F808391381FFF74AFF002070BD09
:102D900023460A2653F8040B2A4606FB003023F08C
:102DA00054FE23682B4423600120F0E778150020AF
:102DB0007C150020EE2E002002490348002223F05B
:102DC00094BC00BFC92C0000B00E002007B560B154
:102DD0004FF4F0120023CDE900230748002200231E
:102DE00018F0F0FB03B05DF804FB034803B05DF896
:102DF00004EB23F086BC00BFB00E002010B50548E0
:102E000017F078FA8368044A5B681060BDE81040E8
:102E1000184700BF9787020098150020024B012138
:102E200018681AF03DBE00BF9815002007B5FFF7DF
:102E3000F5FF00220023CDE9002305484FF420329E
:102E4000002318F0BFFB03B05DF804EB1AF07FBE5F
:102E5000E80E002007B5084B01A918681AF062FEB9
:102E600010B90198C0F30030013818BF0120FFF7F6
:102E7000FBFD03B05DF804FBB8150020F8B5154C58
:102E8000154F164D204617F035FA154A38600C21BB
:102E90001AF020FE134B6B604FF48053AB6020465A
:102EA00017F028FA104E114A114C30601E211AF00A
:102EB00011FE104B636029464FF080433868A360D1
:102EC0001AF000FE306821461AF0FCFD00239B68D2
:102ED000FFDE00BF9F870200B8150020AC15002060
:102EE00000410700552E0000A815002011410300E5
:102EF0009C1500202D2E000013B51AF01FFE002196
:102F000017F090F8294B2A49186022F0D1FF1AF0E7
:102F100015FE002117F086F8264C042301222060BC
:102F20000021009306231EF0ACFA23492068234CAD
:102F300022F0BEFF1AF002FE002117F073F82049BC
:102F4000206022F0B5FF6FF01803009300231A46AB
:102F5000194620681B4C1EF094FA1AF0EFFD002170
:102F600017F060F820601848FDF790FA092894BF20
:102F700016491749206822F09BFF2068154C012153
:102F80001EF0A4FA1AF0DAFD002117F04BF81249EE
:102F9000206022F08DFF1E230093002320681A4634
:102FA00019461EF06EFA02B010BD00BFBC1500201D
:102FB000228E0200C0150020A6870200CC1500203A
:102FC000AA870200C815002051870200B0870200BE
:102FD0001E880200C41500208B88020013B5084C1F
:102FE0000146206822F064FF6FF01803009300236D
:102FF00020681A4619461EF044FA02B010BD00BF00
:10300000CC15002013B5074C0146206822F050FF74
:103010001E230093002320681A4619461EF031FA39
:1030200002B010BDC4150020064A0346106823B143
:10303000012B04D1044922F03BBF0449FBE70449BA
:10304000F9E700BFC0150020A6870200968802009D
:10305000228E02000B6801330B60014B1B6818477E
:10306000F8010020014B1860704700BFF8010020F4
:1030700007B50B46002102460191034801A900F063
:10308000AFFA03B05DF804FB5530000030B585B0F1
:10309000CDE901010446002501A90548039500F08A
:1030A0009FFADDE902309842B8BF255405B030BD23
:1030B000C9DC01002DE9F84FB0F8189019F00808A4
:1030C000044693460DD001290CBF49F0100949F080
:1030D0002009A0F818908BF31188BFF36F8FBDE81B
:1030E000F88F09F00709022907D120461AF019FEC6
:1030F0000028F0D00128238B50D16769218B002F45
:1031000015DA256821F00701C4E9008841F00101C2
:1031100021830026218B01F0070ACA4502D0A3684B
:10312000002B5CD10DB9002E74D0002358E001F0C3
:1031300007035A1F012A20D821F00701062B256812
:1031400089B2C4E900880CD1002D2B4638BF00237A
:103150002BB1628B1B6801326283002BF8D141F0E6
:103160000201218320461AF0DCFD06460028D1D05A
:10317000238B43F020032383CBE7042B0CD121F0D6
:10318000070189B2218320461AF0CBFD05460028AD
:10319000BFD041F0200121830025BAE7032809D1DF
:1031A000226923F00703166843F0060323830025F2
:1031B0002F46AFE7042806D1226923F0070356689B
:1031C00043F00403F2E7052806D1226923F0070340
:1031D000966843F00503E9E700252E46E8E701235A
:1031E00041F0080121838BF31188BFF36F8F03BB7C
:1031F000002D33D116B121492046B0474FF02003AE
:10320000EFF3118B83F31188BFF36F8F238B23F0C0
:1032100008032383238BDA0628D523F010032383A6
:103220000121B4F8189009F0070900297FF45BAF79
:1032300051E7A1680029DBD00B68D1F804B0002B5E
:1032400038BF0023994652463B462046D847B9F13D
:10325000000FCDD0D9F800304946EEE729463B466D
:10326000524620462D681AF078FDC1E713F0200180
:103270001EBF23F0200323830221D2E787DD010054
:10328000F0B5094E016802460A2700200C460131BC
:1032900023789D5D6D0701D41460F0BD07FB0033FA
:1032A000A3F13000F2E700BF3C8E020037B50023E7
:1032B000C0E9003383604B78252B04463DD00131B3
:1032C0000D4611F8013B2B2B48D03AD8202B49D082
:1032D000232B4BD0237803F04402442A02D16FF30E
:1032E000861323702B7801952A2B43D1238843F42E
:1032F000C07323806B1C01931A782E2A0BD15D1C9E
:1033000001955A782A2A41D1627822F0060242F0C9
:10331000060262700233194611F8010B6C286ED058
:1033200040D8682846D06A2872D04C2876D0627877
:103330006FF3C6026270194645E0881CE37003B063
:1033400030BD2D2B05D0302BC4D1237843F0400362
:1033500002E0237843F004032370B1E7237843F0BD
:103360000803F9E7237843F01003F5E7237843F0E7
:103370002003F1E701A8FFF783FF019BAB421FBFCA
:103380002278606042F080022270B4E701A8FFF763
:1033900077FF019B9D421FBF6278A06042F002024E
:1033A0006270B8E77428627835D07A28BFD11346A6
:1033B000062220E05A78682A62781AD1012161F346
:1033C000C6026270991C084610F8012BE270782A38
:1033D00000F2AF80572A2CD8412A03D0453A022A5E
:1033E00000F2A780A378042262F30203A3700123F2
:1033F0007BE01346022262F3C6036370E3E75A7868
:103400006C2A627801D10421D9E713460322F2E73E
:1034100063780522EFE713460722ECE7238823F4BD
:10342000F04323F0020343F4804343F0020323807C
:10343000C9E7A2F15803202B7BD801A151F823F052
:10344000FB34000033350000333500003335000015
:1034500033350000333500003335000033350000CC
:1034600033350000E533000033350000FB34000045
:10347000C5340000E5330000E5330000E53300000B
:1034800033350000C534000033350000333500000B
:10349000333500003335000001350000FB340000F7
:1034A0001B35000033350000333500001B350000AC
:1034B00033350000FB3400003335000033350000A5
:1034C000FB340000A378012161F30203A370637849
:1034D00003F07803402B02BF217841F001012170F5
:1034E000632A2AD1003B18BF01232278C2F340018E
:1034F0000B4363F34102227021E7A3780221E3E743
:10350000A378032262F30203A370637803F07803C5
:10351000A3F1400253425341E7E7A378032262F349
:103520000203A370637813F0780F14BF0123002304
:10353000DBE7237843F0010323700023D5E700BFC6
:103540002DE9F74F14469946D378244A13F802A080
:103550006F2B0AF0030206460F4601922DD028D8A1
:10356000582B14BF0A251025DDF83080AA464FF0ED
:10357000000B52465B4630463946FCF701FE092AED
:10358000D3B21FD830335F45DBB208BF564508F8C9
:10359000013D01D3C84512D823789B0605D5082DD7
:1035A00016D1A37843F00803A370404603B0BDE8EA
:1035B000F08F03F0F703702BD3E70825D4E7064616
:1035C0000F46D6E7019A012A0CBF37335733DAE7A3
:1035D000102DEAD1A37843F01003E5E73C8E0200FA
:1035E0002DE9F04F824691B08B4691461C4600254E
:1035F00099F8000008B928460DE1252809D0594658
:10360000D0470028C0F2078109F101030293013578
:103610005EE0182200210AA823F038FA49460CA8D7
:10362000FFF744FE9DF831300290D9071BD554F8BE
:10363000048BB8F1000F07DA9DF8302042F0040245
:103640008DF83020C8F100085A0715D554F8047BCE
:10365000002F14DA9DF831306FF341038DF83130CB
:103660004FF0FF370BE09DF93020002AB4BFDDF8A2
:1036700034804FF0FF38E7E79F07F1D50E9F9DF8A4
:1036800031100023CDE90D339DF8323003F00703EC
:10369000012BC1F3C3012ED1CB1E042B1BD8DFE8B5
:1036A00003F0033A3A1A1A0054F8042BD317CDE961
:1036B0000A239DF8303013F003064FD0029B4A4690
:1036C000594650461AF06BFE0028C0F2A48005440B
:1036D000DDF808908CE754F8042B01294FEAE273D7
:1036E000CDE90A2302D19DF8283010E00229E0D16B
:1036F000BDF92820DAE7022B20D1CB1E042B10D8ED
:10370000DFE803F00309090F0F0054F8043B0A93A4
:1037100000230B93CDE7073424F00704F4E80223D9
:10372000C5E754F8043B0A9301294FF000030B93BB
:10373000D9D00229BDD1BDF82830E8E7042B07D144
:10374000073424F00704F4E80223CDE90A23B0E7A4
:10375000032B04BF54F8043B0A93AAE79DF83300F7
:103760007828B5D862281FD825284FD05828AFD13F
:103770000DF126030093DDE90A0104AB0CAAFFF763
:10378000DFFE8146002F0DF126000BDB9DF8302077
:10379000A0EB09036FF386129F428DF8302001D908
:1037A000FF1A0D97074646E06338152890D801A206
:1037B00052F820F03F380000A3380000D136000056
:1037C000D1360000D1360000D1360000A338000009
:1037D000D1360000D1360000D1360000D1360000CD
:1037E00001390000CF380000D3380000D136000086
:1037F000D13600001D380000D1360000CF3800005F
:10380000D1360000D1360000CF3800005946D047ED
:103810000028BFF6FCAE11B0BDE8F08FDDF82890AF
:103820004846FCF733FE002F02DBB84228BF38467B
:1038300009EB00070026B9F1000F08D148E70A9B01
:103840008DF8103000260DF111070DF11009A7EBCE
:10385000090306B101339DF83220D0066AD5023340
:1038600052060D9948BF0E9A0B4448BF9B18B8F1F9
:10387000000F73DD9DF83020A8EB0308C2F380032E
:10388000039353076AD4500640F1A6803EB15946CF
:103890003046D0470028BEDB039B01351E4630234F
:1038A0009BE01E0711D413F0100618BF2026DDE997
:1038B0000A23002A73F10001BFF65AAF524263EBAC
:1038C0004303CDE90A232D2652E72B26EFE70026F6
:1038D0004EE70A9848B30DF1260300930CAA04ABF7
:1038E0000021FFF72DFEBDF8323003F0EF0343F463
:1038F000F04343F010038146ADF83230002641E733
:103900000A9B07293FF6E4AEDFE801F00D04060D3F
:1039100008080D0D1D70DBE61D80D9E62846E91765
:10392000C3E90001D4E61D60D2E6314F0646A7F197
:1039300005098CE7110748BF013391E7184659463E
:103940000393D0470028039BFFF665AF4246002A49
:10395000A5EB080108F1FF38F0DC0D4636B15946F9
:103960003046D0470028FFF656AF01359DF832307B
:10397000D90601D41A0706D559463020D047002869
:10398000FFF649AF01359DF83230DB0607D59DF8CB
:1039900033005946D0470028FFF63DAF01350D9E54
:1039A0002E44731B002B1ADC3B464A4659465046B0
:1039B0001AF0F5FC0028FFF62EAF0544A844A8EB4A
:1039C0000503002B7FF784AE59462020D0470028FE
:1039D000FFF621AF0135F2E720234544B6E759460B
:1039E0003020D0470028FFF616AF0135D9E700BFD9
:1039F0009F880200104B2DE9F0411C6805460E46D9
:103A00001746ACB14FF0FF324FF0FF330B4816F0C2
:103A100035FE63683246D3F8088029463B46204687
:103A2000C0470446054816F0A1FE2046BDE8F081D7
:103A30006FF00104F9E700BFD8150020140D002035
:103A400030B585B000230546CDE9023301904FF033
:103A5000FF330E484FF0FF3216F010FE0C4B1C687F
:103A6000002C38BF00243CB1636820461B6801A9C4
:103A700098472468002CF6D1284600F089F80446BF
:103A8000024816F073FE204605B030BD140D00202C
:103A9000D01500201FB5CDE9010103924FF0FF338F
:103AA0000C484FF0FF3216F0E9FD0B4B1C68002C60
:103AB00038BF00243CB1636820461B6801A99847C1
:103AC0002468002CF6D1034816F050FE002004B004
:103AD00010BD00BF140D0020D0150020024B0022A5
:103AE000C3E90022704700BFD0150020024B00221E
:103AF000C3E90022FFF7F2BFDC1500202DE9F341F6
:103B000007460E4609B100230B601E4CDFF87C808F
:103B10000025444508D31C4B1C680CB1143CC4B9A7
:103B2000284602B0BDE8F081216801AA38461AF0A3
:103B300054FC60B125B90EB1019B3360254606E007
:103B40002968206800221AF048FC0028F3D11434B8
:103B5000DFE7216801AA38461AF03FFC60B125B9B9
:103B60000EB1019B3360254606E0296820680022DB
:103B70001AF033FC0028F3D114F1140FD0D064698B
:103B8000CBE700BF70710200DC150020AC710200B1
:103B9000F8B51A4C1A4F06460025BC4206D3194BFD
:103BA0001C680CB1143C9CB92846F8BD1EB9E368EA
:103BB0004BB91434F1E72068002231461AF00DFCAD
:103BC0000028F4D1F5E79847002D08BF0546F0E737
:103BD00036B9E36863B914F1140FE5D06469E0E71E
:103BE0002068002231461AF0F8FB0028F1D1F2E7F4
:103BF0009847002D08BF0546EDE700BF7071020031
:103C0000AC710200DC15002010B5064C23783BB9DE
:103C1000FFF76CFF1AF02AFC08B90123237010BDCE
:103C20000020FCE7772F002030B585B00D4601A9B4
:103C30001446FFF763FF48B1CDE90254054A856891
:103C4000019802AB2146A84705B030BD6FF01500C2
:103C5000FAE700BF4DE401002DE9F74F1F4816F0C9
:103C600021FB1F4A009000231FFA83F9013352F809
:103C70002940002CF8D11B4E184BDFF870A0A6F895
:103C80000090009A1FFA84F84245454602D803B0D6
:103C9000BDE8F08F1A68182101FB05252A69DAB101
:103CA00011498A4218D00027BAB20D4951F82210A2
:103CB000934651B128680192FCF7DEFB0137019A67
:103CC000064B0028F0D12AF81B804A4501BF3288F4
:103CD000511C2AF8128031800134D2E7E41500200B
:103CE00044720200FC2E0020D15F0200FE2E002054
:103CF00010B50748074C16F0FDFA074B1860204630
:103D000000F036FF2046FFF7ADF9002010BD00BFE0
:103D1000D38802001D3D0000E81500200A2838B5B0
:103D2000074D044604D1286883680D215B689847D5
:103D300028688368E1B25B689847204638BD00BFB9
:103D4000E81500200E4A70B5841AA3100D4C5C4390
:103D50000546E4B20C2000FB04200E464021084436
:103D60001AF094FB011E05DB074B03EBC4046368E8
:103D70009847002128463346BDE87040184700BFE9
:103D8000FC150020B76DDBB6687202002DE9F0412A
:103D9000104E841BA310104C5C43E4B20C25654309
:103DA000804605F140000F46304440211AF087FB61
:103DB000011E09DB094A7319C3E90E27084B53F8A2
:103DC0003430BDE8F041184740463B46BDE8F0417D
:103DD000184700BFFC150020B76DDBB621E50100D8
:103DE00068720200002270B501210446104600F0FE
:103DF0003DFC002000F008FC104811F0D1FC104BF5
:103E0000984218D1E06800F01BFA1DF0BBF9E66893
:103E10000C49304619F0D4FF00280BDB012535642E
:103E2000E468084904F11C0019F0CAFF002801DB0E
:103E3000E564002070BD6FF00400FBE77D3E0000EC
:103E40000000AD0B7872020001460C2309484B4379
:103E500070B5C418D4E90E5600224033A26318444A
:103E60001AF04BFB2DB132462B460348BDE870409B
:103E7000184770BDFC150020BC0B0020012810B5B0
:103E800004460AD003280CD078B9084B1B6C5B079A
:103E90000BD1BDE81040FFF7D7BF00F0DFF9204697
:103EA000F7E7BDE8104000F0F9B910BDFC1500209F
:103EB00008B54FF02003EFF3118183F31188BFF3AE
:103EC0006F8F124A136843F0020013F00103106071
:103ED0000CD04FF08042D2F80C34D2F80C2413F0FE
:103EE000010303D00A481AF008FB012381F311886B
:103EF000BFF36F8F23B1BDE808400020FFF7A4BFD8
:103F0000BDE80840012011F05DBC00BF4C16002048
:103F10003C16002010B5074C23782BB94FF4A57040
:103F200022F0EDFA01232370BDE81040002011F0CB
:103F300049BC00BF782F0020094BBFF35B8F53E8CB
:103F4000002F22F0020143E800100028F7D1BFF350
:103F50005B8FD30702D4012011F06CBC704700BF07
:103F60004C1600207FB500220123CDE9022304ABCB
:103F7000CDE90433094ACDF800D06B46CDF804D022
:103F80001AF0F6FA002805DB4FF480420023684659
:103F900017F01EF807B05DF804FB00BF33E5010021
:103FA000024AC3B21C2003FB00207047FC1500200E
:103FB000094BBFF35B8F53E8002F42F0010143E848
:103FC00000100028F7D1BFF35B8F930702D40120C4
:103FD00011F0F8BB704700BF4C160020094BBFF32F
:103FE0005B8F53E8002F22F0010143E80010002806
:103FF000F7D1BFF35B8F930702D4012011F01ABCF5
:10400000704700BF4C160020F8B52849BFF35B8FFE
:104010000646012251E8003F41E800200028F9D17E
:10402000BFF35B8F33B9224922484B60CB608A6073
:1040300019F0D9FE731E012B20D822F05AFA04463B
:1040400010B91D4B1B7853BB4FF02003EFF31185C4
:1040500083F31188BFF36F8F01244FF08047D7F8A7
:104060001834D7F81824D20309D59B0701D0012EA4
:1040700005D174B185F31188BFF36F8FF8BD1CB102
:10408000284600F061FBEAE70021212016F054FFEA
:10409000E5E74FF080430222C3F80423EEE74FF038
:1040A00080430222C3F808230546D6E750160020B5
:1040B000EC15002018160020AF3000200549002321
:1040C000CB60054B4B6003238B60044B186819F0E1
:1040D0008ABE00BF58160020E94100006816002083
:1040E00008B5034816F006F9024B1860002008BD19
:1040F000DA8802006C16002007B500220023CDE903
:10410000002308484FF40032002317F05BFA064BF7
:10411000186819F0B1FE054B00221A6003B05DF873
:1041200004FB00BF880C00206816002054160020F5
:1041300037B51D4C206883681C4DDB6838219847D3
:1041400088B100242C7020462B780BB1012822DD89
:10415000174B1C80174B02221A6011F0B1FB012390
:104160002B7003B030BD206883686A461B690C2140
:1041700098470028E5D1019C0F4B94FBF3F4009B7A
:1041800004EB83040A4BB3F9000024B2201A22F096
:104190004AFC00B2D8E7094A013B2B70136801338F
:1041A0001360FFF7A9FFDCE76C160020792F0020D1
:1041B0001C2F0020340C004090D003007416002007
:1041C000084BBFF35B8F012253E8001F002903D186
:1041D00043E800200028F7D1BFF35B8F01D1FFF740
:1041E0006DBF70475416002008B5104B1B6843B9CB
:1041F0000F4B02221A6011F063FB0E4B01221A7062
:1042000008BD0D49BFF35B8F51E8003F43F0010249
:1042100041E800200028F7D1BFF35B8FDB07EFD424
:10422000BDE808400548083922F007B86C160020A0
:10423000340C0040792F00205C02002088140020FC
:10424000034B044A186000231360034A136070474D
:104250006816002070160020741600200A4B0022F9
:104260001A700A4BBFF35B8F012253E8001F00292D
:1042700003D143E800200028F7D1BFF35B8F01D1C1
:10428000FFF71CBF704700BF792F00205416002095
:10429000014822F036BA00BF880C0020024A136899
:1042A00001331360FFF728BF701600200023054A72
:1042B000A1F80D30CB730423C1E9002301228A60E9
:1042C0000B73704780002000F0B5C46889B00546C4
:1042D000374816F00FF8606020B96FF015042046DB
:1042E00009B0F0BD334816F005F820600028F4D07E
:1042F00004211AF007FA304A4FF48073C4E9052309
:104300002C4815F0F7FF40F21D130126238204F11B
:104310000803A060E660E361264815F0EBFF206229
:104320000028DAD01C211AF0EDF94AF2A463ADF8A6
:104330000030E8683346022269461AF052F9044612
:1043400010B16FF00404CAE7EF680021212016F0D5
:10435000F3FD3868224604211AF025F900212120B6
:1043600016F0EAFD3868324604211AF01CF9284696
:104370001AF0BBF90028E4D1104B01AA03F1180789
:10438000164618685968144603C40833BB422246CF
:10439000F7D11B782370E8680123192231461AF0FF
:1043A00020F904460028CCD128461AF091F996E766
:1043B000E18802009F87020000B4C404CC710200AF
:1043C000821C084B22F07F42C3F84025D3F8042515
:1043D000904200D17047D3F80405821C22F07F423E
:1043E000F2E700BF00100140074B00221A601B6873
:1043F000064A074BD3F840051368C01A20F07F40E7
:104400000344136017F032B840110140A016002099
:104410000010014038B5104D104B0024C5F8084578
:104420001C601B680E4B4FF40032C3F880214FF420
:104430008033C5F8043322460121112000F016F91B
:10444000112000F0E1F8074A0123136002202B60DD
:10445000FFF7DAFD204638BD001001404011014051
:1044600000E100E008100140F8B52D4BB0F1FF3F2E
:1044700008BF18460138002840DD9842A8BF1846FA
:10448000284C294AD4F804351268284E9B1A13F494
:10449000000F23F07F4518BF0020013528444FF45A
:1044A00080311F4DC4F80813A84294BF1518551940
:1044B000D4F80425D4F8403500279B1A376023F040
:1044C0007F433068012B22F07F40C4F84005C4F8D8
:1044D000441304D10F2022F012F837603368144BD4
:1044E0004FF40032C3F88021D4F804052B1A23F0CE
:1044F0007F43012B04D1FFF763FF0BE00020BFE7F0
:1045000025F07F43C4F84035D4F804052D1A023D48
:104510002B02F0D44FF48033C4F80433F8BD00BF4D
:10452000FFFF7F0000100140A01600204011014055
:1045300000E100E04FF02002EFF3118382F31188D5
:10454000BFF36F8F064AD2F80405064A1268801A34
:1045500020F07F4083F31188BFF36F8F704700BF57
:1045600000100140A01600200A4A0B499368096810
:10457000C3F880100949D8674B6843F080534B60FB
:10458000002383F31188BFF36F8F9368D3F8800003
:10459000704700BF902E00200085020000ED00E073
:1045A0000F498A684FF038001044EFF3098C80E817
:1045B000F01F202080F31188BFF36F8F094F4FF059
:1045C00000668A6A8A603E60D06F0023D36780F3FA
:1045D000118802F1380090E8F01F8CF309887047C9
:1045E000902E002004ED00E01EF0040F0CBFEFF34E
:1045F0000880EFF30980816911F8021C0229FFD0BD
:1046000001B51AF09EF801BD43B2002B08DB012270
:1046100000F01F0002FA00F05B09024A42F8230092
:10462000704700BF00E100E043B2002B0DDB012228
:104630005B0900F01F0002FA00F02033034A42F841
:104640002300BFF34F8FBFF36F8F704700E100E08F
:10465000054B420900F01F0053F82220012303FA02
:1046600000F01040704700BF00E100E043B2002BB3
:10467000A8BF03F1604301F10101B8BF064B4FEA47
:104680004111ACBF03F5614300F00F00C9B2B4BFE4
:10469000195483F80013704714ED00E008B572B6A2
:1046A000044B586A18B100225A6221F0BBFC62B672
:1046B00008BD00BF902E002042F8203C009B42F82D
:1046C0001C3C0A49019B42F8183C029B42F8143CEE
:1046D00021F001014FF0807342F8043C42F8081CBD
:1046E0000023203A8265C367704700BFEBDE0100FC
:1046F00008B506460D46144600F0A4F9074B9E6027
:10470000204685F30988002163B681F31188BFF341
:104710006F8F0022002319F0E8FB00BF902E0020CD
:10472000014910220A60704710ED00E072B6404067
:1047300080F31188BFF36F8FBFF34F8F30BF62B626
:10474000BFF36F8F704700BF72B6494081F3118885
:1047500020BF80F3118862B6704700BF30BFFFF7FB
:10476000FDBF00BF0E4A08B50E4B22F07F029A60D3
:10477000BFF34F8FBFF36F8FD3F8882022F47002FE
:10478000C3F88820EFF3148323F0040383F3148821
:1047900015F01AFE15F022FE00F026F915F05CFE69
:1047A0000000000000ED00E001B572B60B4A506A4F
:1047B00000281EBF0021516221F034FC62B6EFF3E5
:1047C0000580A0F110004FEAC0000549014409C965
:1047D0009847BDE80140034908470000902E00209B
:1047E00004700200CD4900001AF00AF9202080F37D
:1047F000118808484FF40061401880F30988EFF3EE
:1048000014800221084380F31488BFF36F8FFFF7F1
:10481000A9FF0000B8440020EFF30880EFF30981FE
:1048200001B5724600F04EF801BD00BF0C4B9A6A0C
:104830009A6A9A6A920708D55A6B9A6A120604D540
:1048400018B19A6A22F080029A62054B9A6A9A6AB3
:104850009A6A9A6A002042F0FF029A6208707047D2
:1048600000ED00E00D4B9A6A9A6A9A6A920508D5A3
:104870009A6B9A6A120404D518B19A6A22F400421B
:104880009A62064B9A6A9A6AD20558BF9A6A9A6ADD
:10489000002042F47F429A620870704700ED00E009
:1048A000074B9A6A9A6A9A6A9A6A9A6A9A6A9A6A9A
:1048B0006FEA02426FEA12429A620020704700BF1C
:1048C00000ED00E0F0B5394B5B688BB00C46C3F3EC
:1048D0000803002585F31188BFF36F8F02F07F4135
:1048E000B1F17F4F11D102F00C0108290DD0110751
:1048F00001D4044601250022033B8DF80720032B39
:104900004DD8DFE803F0044448412C46F3E7274B39
:10491000DA6A920743D4DB6A13F0804308D0244B51
:104920001B781BB30DF107010120FFF77FFF034642
:104930009DF80720C2B902AE04F120072068616823
:10494000324603C20834BC421646F7D1099A45B331
:10495000C2F3080121B96FEA52226FEA422209929A
:1049600002A9184619F0EBFE0BB0F0BD114B1B78F5
:104970002BB10DF107010120FFF774FFD7E70E4BB4
:10498000188883B2002BD3D0FFF78AFFCFE70DF151
:1049900007010020C9E70DF107010020ECE7002323
:1049A000C6E722F4FF7222F00102D8E700ED00E032
:1049B00028ED00E029ED00E02AED00E0024A53690D
:1049C00043F010035361704700ED00E0044B996819
:1049D000986A884203D003494FF080520A607047BA
:1049E000902E002004ED00E0044800232021C2188E
:1049F0000133272B82F80013F9D1704700E100E062
:104A000008B50E4B9B68834207D1EFF3058393B142
:104A10000B4A536843F08053536016F0EBF84FF0A5
:104A20002003EFF3118083F31188BFF36F8FBDE88C
:104A3000084021F07CBC16F0C7FB00BF902E002080
:104A400000ED00E0024B034A0348012100F086B864
:104A5000000001200000002084720200F0B51E4F0B
:104A600000268E4201DB1046F0BD446884B353B18A
:104A700004F1FF3C14EA0C0F18D11F2C16D905685D
:104A80001CEA050F12D1202C0568D0F808C0D2B25C
:104A90000FD9B4F1004F0ED8013CB4FA84F4C4F13C
:104AA0001F046400072A4CEA040406D96FF01502BB
:104AB000D9E70824F6E73E24F4E725F01F0515435F
:104AC00045F0100544F00104BA60FD6001323C611C
:104AD00001360C30C5E700BF90ED00E0034B052226
:104AE0005A60BFF34F8FBFF36F8F704790ED00E0B8
:104AF000BFF35F8F014B00225A60704790ED00E0DA
:104B000013490868082810B51ED8FFF7F1FF114CAB
:104B100049680022904201F10C0105D10E4B18703A
:104B2000FFF7DCFF002010BDA26051F80C3C23F021
:104B30001F03134343F01003E36051F8043C43F0B8
:104B4000010323610132E5E74FF0FF30EBE700BFDF
:104B50009072020090ED00E07A2F002010B5034C17
:104B600001232278FFF77AFF207010BD7A2F0020F2
:104B7000014B1860704700BF38030020F8B50A4F9A
:104B80000D46461EC0F10104A3199D4201DC2846D2
:104B9000F8BD73780A2B02D13B680D2098473B681B
:104BA00016F8010F9847EFE73803002010B54FF0D3
:104BB000FF3204464FF0FF330A4819F087F90A49DB
:104BC0000B68E018094CC4F1005202F580329042A3
:104BD0003ABFE41808604FF0FF34024819F071F949
:104BE000204610BD280D0020A41600209855002056
:104BF00008B51D210448FFF7C1FF404080F311882C
:104C00004FF0030002DF00BFE788020010B590B04C
:104C10001F4815F06FFB0446002833D011F04EF901
:104C200004A813F04FFFA3680F942046DB69694680
:104C30009847BDF80030174817490590802B98BF5A
:104C4000ADF81030BDF802308CBF6FF08504002441
:104C5000202B94BFADF812306FF0850440F6382356
:104C6000002220F06BFA54B904A800F017F860B9DC
:104C700004A813F071FFB0FA80F46409644220467E
:104C800010B010BD6FF01204F9E76FF08504F6E77D
:104C900097870200F0170020A81600201FB50446D1
:104CA000C06A83686946DB6998479DF80C30082B19
:104CB0000AD86BB1013B0022072B09D8DFE803F0CB
:104CC000172308230808080F102B15D0202B13D00A
:104CD0000023C4E9033363616FF0850005E00D4BE9
:104CE000C4E903320C4B6361002004B010BD0B4BD0
:104CF000C4E903320A4BF6E70A4BE36000200A4B93
:104D000020616361F1E7094BE360094B2361094BC3
:104D1000E9E700BF97E90100E3E9010019E90100B3
:104D200067E90100B3E80100FFE8010069E701005D
:104D30007BE80100E3E701004FF02003EFF311826D
:104D400083F31188BFF36F8F06490123C1F8403503
:104D50004FF08041C1F8783582F31188BFF36F8F2F
:104D60000020704700E0014020B1034B800143F078
:104D700001031847704700BF10720200034904483E
:104D8000CA79C2EBC202FEF735BE00BF00000020A8
:104D9000148902002DE9F341054616461F4628B93D
:104DA0006FF00104204602B0BDE8F08101A919F0BE
:104DB00037FB1D4902468046284621F079FE04460D
:104DC000F0B9BFF35B8FDFF87080D8F80030BFF325
:104DD0005B8F5B0701D50024E4E7A8F19805072263
:104DE00029463846B047062895BF48F8984C07230F
:104DF000C5F80340B0FBF3F094BFEC71E871D1E764
:104E00000A494246284621F053FE04460028C7D1ED
:104E1000074941223846B0470028DCDB054B1844DF
:104E200080F82041BEE700BF178902007D8A02009A
:104E30002001002000000020980000202DE9F04112
:104E400088B09C79DDF838805D791E79DF7893F839
:104E500002C093F801E01B78B8F1000F0ED0CDE945
:104E60000638CDE904CE1346CDE90267CDE9004509
:104E7000084A18F049FF08B0BDE8F081CDE905E324
:104E8000CDE9037C1346CDE90156034A009418F09E
:104E90003BFFF0E71A8902003E8902000949BFF38F
:104EA0005B8F51E8003F43F0010241E800200028F9
:104EB000F7D1BFF35B8FDB0703D40348083921F038
:104EC000BCB97047440300208814002010B5184C6A
:104ED00094F8203113B9174801F076F8E379E3B17B
:104EE000BFF35B8F144C2368BFF35B8F9B0701D428
:104EF00000F032FEBFF35B8F54E8000F20F4004354
:104F000044E80032002AF7D1BFF35B8F10F4004071
:104F10000CD0FFF7C3FF002008E001F0CDF8E379E3
:104F2000002BDDD101F03EF90028D9D010BD00BF23
:104F3000000000204087020098000020F0B50B46DA
:104F400001780129024615D002292BD089B91C4CC1
:104F50001D4604F11007206861682E4603C6083418
:104F6000BC423546F7D15288217831705A73120A03
:104F70009A73F0BD124C1D4604F110072068616859
:104F80002E4603C60834BC423546F7D15268217814
:104F90003170C2F307215A73120CDA73120A997333
:104FA0001A74E6E700F11005106851681C4603C446
:104FB0000832AA422346F7D112782270D9E700BFFF
:104FC0006289020010B50121044608301BF07CFF05
:104FD0002146034A0078BDE81040072319F0D6BDEA
:104FE000B0720200F8B50A4F06460025FB79ECB214
:104FF000A34202D86FF0010408E0C4EBC4013944B5
:10500000304619F08EFE01350028EFD12046F8BD5C
:1050100000000020436837B50446580502D500203B
:1050200003B030BD22690AB1D907F8D5174D2078F1
:10503000EB798342F3D9C0EBC000002369462844D2
:105040000093CDF8033019F06CFE0028E7D06068BB
:10505000C20706D495F83830082B02D8A3689F2BD6
:10506000DDD9C30601D4236943B9D4E902239A42A6
:10507000D5D81F2AD3D9B3F5804FD0D800F46030EB
:10508000B0F5603018BF0120CAE700BF0000002063
:1050900013B50C4C0146052294F8370001F036FD9B
:1050A00070B9094B18689A8800909B79ADF8042074
:1050B00094F837008DF806300422694601F026FD89
:1050C00002B010BD00000020E57102002DE9F0479C
:1050D00000258768DFF8E890A8463B789D4201DB11
:1050E000BDE8F08707EB8503B3F80100B3F8036070
:1050F0004FF02003EFF3118A83F31188BFF36F8F12
:1051000001F0DCFC044628B98AF31188BFF36F8FE5
:105110000135E2E78AF31188BFF36F8F00F1280AA7
:1051200026B34FF02003EFF3118283F31188BFF30E
:105130006F8FE3696BB1013BE36182F31188BFF3C9
:105140006F8F204601F08AFB013E15F01BFFB6B2BF
:10515000E6E763692BB1A169186860618B4208BFFB
:10516000A06182F31188BFF36F8F1BB920461AF03C
:10517000FEF8CDE74FF02002EFF3118182F31188A2
:10518000BFF36F8FDA68E261C3F80080626AC3F828
:105190000C808AB9C4E9083381F31188BFF36F8F9B
:1051A000012104F1300019F01BFDC307C9D4514699
:1051B000484621F042F8C4E713606362ECE700BFA1
:1051C00088140020F8B5064688790C460FF010FACE
:1051D000194B83422ED120460FF012FA20460FF0D1
:1051E0000FFA164D0C2707FB00535B685BB156B9ED
:1051F00020460FF005FA07FB00504368D3E9000191
:105200001A7A19F043FD20460FF0FAF90C2707FB34
:105210000050836873B120460FF0F2F978432E54A2
:1052200020460FF0EDF907FB0055A868BDE8F840EF
:1052300015F0A8BEF8BD00BF000E00201418002015
:1052400038B50321044608301BF03EFEA3680578FC
:1052500018782146FFF7B6FF25B10348BDE838406E
:1052600015F090BE38BD00BFE8000020F0B5284B17
:1052700085B005460F46017803F12C0019F0AAFC11
:1052800010F0400F1A4608D003F12C0019F0A2FCD0
:10529000C00502D51B7E8B4231D12E46694616F8D9
:1052A0000B3B82F83730304600230093CDF80330B3
:1052B00019F037FD0446287864B131461AF06CF8CD
:1052C0000446F8B92878314601F0CCFB0546E0B138
:1052D00005210EE06FF0FF03029302A94FF6FF7362
:1052E000ADF80C308DF80E3001F0BCFB054660B116
:1052F000042101F045FC3D60204605B0F0BD6FF093
:105300008504F9E76FF01504F6E76FF00B04F3E797
:105310000000002038B50421044608301BF0D4FDFD
:10532000457800782146FFF74DFF25B10248BDE8DA
:10533000384015F027BE38BDE80000202DE9F84FB1
:105340004FF0FF324FF0FF3305461648DFF8588024
:105350000E461BF02BFD044600F1080B0021002730
:1053600058461BF048FD277520460FF049F94FF0CD
:105370000C0A0AFB0080458020460FF041F90AFB29
:105380000080876020460FF03BF90AFB0080032174
:10539000476058461BF066FD867005802046BDE8D4
:1053A000F88F00BF000E002014180020F0B515463D
:1053B00087B00C4621B9FFF7C1FF0446002848D04A
:1053C00001220021684621F084F820460FF018F9E8
:1053D000214E0C2303FB0060C0F808D020461BF0D0
:1053E0001BFD1E4821461BF00AFD4FF4A02200239E
:1053F000684615F0EDFD074680B1194A19491A486B
:105400004FF4BB7318F073FC1848394618F06FFC62
:10541000404080F311884FF0030002DF20460FF078
:10542000EFF80C234343F65C56B120460FF09CF98D
:10543000092E0CBF6FF06E006FF0040007B0F0BDD6
:1054400015B12C603046F9E720460FF08DF928465B
:10545000F4E76FF06800F1E7141800200401002061
:1054600073890200A7890200B0890200CD89020079
:105470002DE9F04F87B006469DF84880DDF8409052
:105480009DF844A00C4617460021102202A81D4694
:1054900021F0FCFAB8F1000F0ED0B4BB002D3FD1C3
:1054A000DFF8B0B05846FAF7F1FF09238DF8003065
:1054B0008DF80100CDF804B0CDE90247B8F1000F36
:1054C00030D0BAF1000F2DD10123CDF810D00593C3
:1054D000022202A942F2080019F04BFC044638B936
:1054E000BAF1000F20D1042106F1140019F078FB65
:1054F000204607B0BDE8F08F14F83320083A012A9F
:1055000025D901339F42F7D1C8E70023FAE715F800
:105510003320083A012A1AD901339945F7D1BFE758
:105520000023FAE70122D4E7CDE902590122B8F1BC
:10553000000F03D00592CDF810D0022202A942F24A
:10554000090019F016FC0028CDD00446D0E76FF012
:105550001504CDE72001002070B5154E062206F196
:105560003101054621F063FA0246D8B1062142F224
:105570000500FFF7E3FE0446B0B1062229460830D5
:105580001BF076FC0022214642F20500FFF70EFFD9
:10559000024638B9294606F1310019F0C5FB01234E
:1055A00086F83030104670BD6FF06802FAE700BF31
:1055B000000000202DE9F743044611F001000E46DB
:1055C00090461D4627D0274F2AB1880603D597F865
:1055D000A030590642D5C4EBC4034FEAC409FB5CB2
:1055E000012B08D0A9EB04043B5DB8F1000F0DD1ED
:1055F0002B70002007E0072010FB04303844FFF731
:10560000ABFF0028EED003B0BDE8F083B20648BF80
:1056100043F00203ECE74B0710D5124EC4EBC40372
:10562000E700F35C012B05D1072010FB0430304468
:10563000FFF792FF3C1B335D2B70E4E706216846C1
:1056400006F02AFA40B99DF80530684603F03F039A
:105650008DF80530FFF780FF0123EDE76FF085003F
:10566000D1E700BF000000207FB506460D4642F29C
:105670000A000121FFF762FE0446E8B10830CDB10F
:1056800001211BF0FFFB14360623204602930196EE
:105690008DF80C500EF0B4FF094B0C2202FB0030C9
:1056A00001AB43600022214642F20A00FFF77EFE72
:1056B00004B070BD2946E4E76FF06800F8E700BF6A
:1056C0001418002030B5174DC0EBC00085B005445C
:1056D0000C46A9B1002302A920460293CDF80B3055
:1056E00019F01FFB60B12146284619F022FB0E4835
:1056F00019F070FA830701D5FFF7D0FB05B030BD74
:10570000684619F0B7FB6846FFF76CFC0028F7DA2B
:105710006946284619F00DFB002CE8D029462046A2
:10572000E3E700BF0000002098000020024BD3F800
:105730001C311B69184700BF0000002038B5054622
:105740000C4619B9FFF7FAFD044698B140F6354307
:105750009D4209D12046FFF7E9FF054610B12046DA
:105760000FF002F8284638BD044821461BF047FBDD
:105770000025F7E76FF06805F4E700BF040100209B
:105780007FB5837A072B04461ED1061D304619F0DB
:1057900021FA83041AD4E37823B1254B93F8A0307F
:1057A0001D0713D5022142F21600FFF7C7FD05467B
:1057B00060B1022108301BF055FB23880380294685
:1057C00042F21600FFF7BAFF04B070BD304619F080
:1057D00001FA10F4805F164DC0F300310FD195F837
:1057E000A130D8070BD5022300911A46204619F0A4
:1057F00086FB20B98021304619F0F2F9E4E795F8EC
:10580000A0309A06E0D5D5F81C319B689B07DBD504
:105810000DF10E0103A819F094FA0028D4D1BDF8B7
:105820000E20BDF80C10204619F04CFBCCE700BF51
:10583000000000202DE9F84FDFF80481DFF814A103
:10584000D8F80C303D486FF31033C8F80C3001F035
:10585000CBF8451C3A484FF0FF324FF0FF33294652
:1058600015F00CFF60B13749374841F2CF4352463B
:1058700018F03DFA404080F311884FF0030002DF3A
:10588000DFF8D4902E4EA9F58277A9F11C0B15B93B
:1058900015F004FBD4E7F368C3F30433042B42D1BF
:1058A000337B002B42D10022002348461BF083FAB1
:1058B000044660B92549244841F26C43524618F029
:1058C00016FA404080F311884FF0030002DF4FF0DA
:1058D000FF324FF0FF33584615F07AFBD7F800013E
:1058E00020B10EF041FF0023C7F8003120461BF025
:1058F00093FAC7F800012046FFF718FF98B1144843
:1059000015F040FB20460EF07BFE21461F20FFF7DE
:1059100059FCD7F800010EF027FF00232046C7F8F6
:1059200000310EF021FF1436013DB0E7012BFAD112
:105930003069343801F09CFAF5E700BF5C030020C1
:1059400048030020A7890200B0890200ED89020007
:10595000E800002073890200040100202DE9F041D5
:10596000044600F1080630461BF0BEFAB4F80C807D
:10597000B8F1010F05460CD81C4A1D491D4841F6D7
:10598000261318F0B4F9404080F311884FF003005B
:1059900002DF022130461BF097FA0746007819F023
:1059A000E3F8C20706460CD4104A1349114841F6E1
:1059B0002A1318F09CF9404080F311884FF003003F
:1059C00002DF05230D4A3878214619F0DFF8B307C6
:1059D00007D52069A4F80C8010FA85F5A560BDE80C
:1059E000F0812046BDE8F0410EF0BEBE7389020092
:1059F000F1890200B08902000A8A0200487302009D
:105A000070B5037D012B044636D0032B63D1838907
:105A1000032B0CD8324A3349334840F20A5318F06A
:105A200066F9404080F311884FF0030002DF042143
:105A300004F108001BF048FAFF22438806886275CB
:105A4000A289C6F30B009A42E08203D020460EF0F2
:105A50008BFE0FE001F032F805460028F6D001F089
:105A60006FFA320B60752146284619F0F8FB28467C
:105A700019F07DFC002070BD8389012B0CD8184AD9
:105A80001849194841F2594318F031F9404080F360
:105A900011884FF0030002DF022104F108001BF01F
:105AA00013FA0546007819F05FF883070CD40C4A06
:105AB0000E490D4841F25D4318F019F9404080F35A
:105AC00011884FF0030002DF094A28780423214699
:105AD00019F05CF8BAE70EF047FE6FF01500CAE760
