:100000008849002061650000CF640200916500000E
:1000100091650000916500009165000000000000FE
:10002000000000000000000000000000C1620000AD
:100030009165000000000000796200000F6402007A
:1000400021650000A171010021650000216500000B
:100050002165000021650000216500002165000088
:100060002165000021650000216500002165000078
:100070002165000021650000216500002165000068
:100080002165000021650000216500002165000058
:100090002165000021650000216500002165000048
:1000A0002165000021650000216500002165000038
:1000B0002165000021650000216500002165000028
:1000C0002165000021650000216500002165000018
:0C00D00021650000216500002165000092
:0400DC00FFFFFFFF24
:1000E00001F0FF01102A2BDB10F0070F08D010F8E9
:1000F000013B013A8B422DD010F0070F42B3F6D1ED
:10010000F0B441EA012141EA014122F007047FF005
:1001100000070023F0E80256083C85EA010586EA5C
:10012000010685FA47F5A3FA87F586FA47F6A5FA98
:1001300087F68EB9EED1F0BC01F0FF0102F00702A4
:1001400032B110F8013B013A83EA010313B1F8D14F
:100150000020704701387047002D06BF3546033830
:10016000073815F0010F07D1013015F4807F02BF69
:10017000013015F4C03F0130F0BC0138704700BFBA
:1001800053B94AB9002908BF00281CBF4FF0FF31FE
:100190004FF0FF3000F06EB9ADF1080C6DE904CE00
:1001A00000F006F8DDF804E0DDE9022304B0704752
:1001B0002DE9F047089D0E4604468C46002B40F082
:1001C00081808A42174645D9B2FA82F24AB1C2F119
:1001D000200106FA02F320FA01F1974041EA030CEC
:1001E00094404FEA174E230CBCFBFEF6B9B20EFB4F
:1001F00016CC43EA0C4306FB01F0984209D9FB18E0
:1002000006F1FF3C80F01581984240F21281023ED7
:100210003B441B1AA4B2B3FBFEF00EFB103344EABE
:10022000034400FB01F1A14209D93C1900F1FF335D
:1002300080F00181A14240F2FE8002383C44641A01
:1002400040EA064000211DB1D4400023C5E9004327
:10025000BDE8F08702B9FFDEB2FA82F2002A4FD180
:10026000CB1B4FEA174E1FFA87F80121B3FBFEFCA8
:10027000260C0EFB1C3346EA034608FB0CF3B34284
:1002800007D9BE190CF1FF3002D2B34200F2EB8065
:100290008446F61AA3B2B6FBFEF00EFB106643EAE4
:1002A000064408FB00F8A04507D93C1900F1FF33CC
:1002B00002D2A04500F2D2801846A4EB080440EA1E
:1002C0000C40C0E78B4208D9002D00F0AF80002120
:1002D000C5E900060846BDE8F087B3FA83F10029B6
:1002E00049D1B34202D3824200F2BB80841A66EB4A
:1002F000030301209C46002DAAD0C5E9004CA7E7C6
:10030000C2F120039740D8409140DE404FEA174E9B
:1003100008434FEA104CB6FBFEF11FFA87F80EFBBC
:1003200011664CEA064601FB08F3B34204FA02F4F4
:1003300009D9BE1901F1FF3C80F08E80B34240F232
:100340008B8002393E44F31A86B2B3FBFEF00EFBFB
:10035000103346EA034600FB08F3B34207D9BE193F
:1003600000F1FF3C74D2B34272D902383E44F31A12
:1003700040EA01417AE7C1F1200703FA01F422FAC9
:1003800007F31C4320FA07F906FA01F34FEA144C6D
:10039000FE4049EA03094FEA1943B6FBFCFE1FFA87
:1003A00084F80CFB1E6643EA06460EFB08FAB245CB
:1003B00002FA01F200FA01F308D9A6190EF1FF3092
:1003C00048D2B24546D9AEF1020E2644A6EB0A0643
:1003D0001FFA89F9B6FBFCF00CFB106649EA0646E9
:1003E00000FB08F8B04507D9A61900F1FF3C2DD253
:1003F000B0452BD90238264440EA0E40A6EB080649
:10040000A0FB02894E45C446CE4618D315D075B31D
:10041000B3EB0C0266EB0E0606FA07F722FA01F3BD
:10042000CE401F43C5E90076002111E72946284642
:100430000EE76646EDE6184601E74345E7D2B8EB1E
:10044000020C69EB04040138A646E0E76046D3E7F6
:1004500060468CE78646B9E7614674E702383C445B
:100460002BE7084647E7ACF1020C3E4411E729466A
:10047000EEE600BF704700BF10F8012B11F8013BFA
:10048000012A28BF9A42F7D0D01A7047034613F8C2
:10049000012B002AFBD1181A013870470000000018
:1004A0002DE9F041D0E90BC7D0F828800CEB070408
:1004B0003034A0450E46154618D81B4F18A3D3E973
:1004C0000023ACFB0701FFF75BFEA4EB080420F060
:1004D0007F40306012A3D3E90023A4FB0701FFF79C
:1004E0004FFE20F07F402860BDE8F0810E4C0CA349
:1004F000D3E90023A8FB0401FFF742FE20F07F436D
:1005000007F130003360A0FB040105A3D3E9002309
:10051000FFF736FE20F07F402860BDE8F08100BF85
:100520008D49FD1A0700000000CA9A3B0000000038
:100530002DE9F04FB34C94F84E608FB006F00106F1
:10054000002800F0CE81B6BB94F8392094F82D3005
:1005500094F8290004EB820204EB8303FF2100F0EE
:100560000300D2F83C80D3F8309084F82A1016F0BB
:1005700079F894F84E00410700F127814D46314645
:1005800015F8020BC0F380100FF0E2FA0368C9F807
:1005900002308388AB800368C8F802308388A8F8EB
:1005A000063099F800305A060AD413F00E0F40F0C6
:1005B000E180636A93B10C2630460FB0BDE8F08F3E
:1005C000062109F102000DF029FF002800F0368213
:1005D00099F8003013F00E0FEBD0CBE011F082FD54
:1005E0008246002800F04F8211F088FD83460028E3
:1005F00000F0628212F06EFF0546002800F059827A
:100600004FF6FF73806FAB8505F11C030B93002839
:1006100000F0358205F16C0205F168010DF00AFF6A
:10062000B5F86430784995F8DC7095F83D2095F878
:100630004000C5F830A10B4043F4887327F0030C49
:1006400095F8261185F8DCC0002743F0010302F07D
:100650003F0262F07F02A5F8643067F300004FF0BC
:100660001B1321F0030185F83D2085F84000062288
:100670006648EB65664B85F826112866A5F8C42008
:10068000C5F81C31C5E9137785F83F706F866F6335
:100690006F65A5F8C870A5F8CC70A5F8E87085F866
:1006A000EA70C5F80071A5F80471A5F81871C5F8CD
:1006B0002071A5F8247185F82F71AF67A5F87C70BB
:1006C00095F8720195F89A1195F87E2095F85231B7
:1006D000A5F8507167F3C30122F01F0223F007034E
:1006E00067F3041085F89A1185F87E2085F8523159
:1006F000A5F87071A5F89871A5F8A47185F8720134
:1007000013F0FEF9A5F8D60013F000FAD5F8A821E9
:10071000404BA5F8D8001340C5F8A83113F0FCF9F8
:1007200095F8AC3160F3020385F8AC3113F0FAF9B7
:10073000C4E911AB0B9B636295F8AC2195F82010CE
:10074000C5F8C071030103F0700322F0780213436F
:1007500067F30001C5E96E77C5E96C77C5E90577F0
:10076000ED6185F8AC3185F8201017F035F90028D7
:1007700040F06E8194F828300121C3F342030DA8A4
:100780008DF834300DF0CEFF002800F09F8099F8EE
:10079000003003F00F03022B00F1FF323CD0012B9D
:1007A00000F05A8198F801001030C000002B40F092
:1007B000478199F801301033DB0003F54D7108448F
:1007C00003F59A7303FB020031E0C0F3C000324628
:1007D00004F14F0116F008F9FF2884F82A0002D02E
:1007E000304615F0DFFF0748494615F055FF05482C
:1007F000414615F051FF99F800305A067FF5D5AE05
:10080000DEE600BFE024002080F8FFFF4801480139
:100810007F4101000000FFF699F801301033DB0042
:1008200000FB03F000F5AA70642303FB020094F8B8
:100830002070AB4AE4610025312365F30007A0FB7B
:100840000201236084F82070A3A3D3E90023C4E944
:100850000555C4E90155FFF793FCB4F84C80E060FE
:100860000FF070F90746B8F1000F08D199F8005061
:1008700005F00F05A5F10105B5FA85F56D0994F8A8
:100880002820E36865F3000212F0010584F82820AF
:1008900000F08580DFF85C929249049300200225E5
:1008A0000DF1300801930591CDE907980321CDE9B9
:1008B000020006942A4600903B460C950FF090F8F3
:1008C000414611F09DFC002800F0A580636A002BD2
:1008D0003FF471AE12F006F80C2630460FB0BDE8BA
:1008E000F08F002E3FF467AE204611F0B1FC844239
:1008F0000CD07D4A7D497E4840F2557324F06AFB56
:10090000404080F311884FF0030002DF94F8283054
:10091000D8070DAD0ED502220D920321754B00951F
:10092000012200200FF0C8F8294611F069FC0028C8
:1009300040F0C780022203216E4B009500200D92EB
:100940000FF0BAF8294611F05BFC002840F09D80BA
:10095000694811F0B9FC002840F08380674811F025
:1009600083FC84420CD0604A6049614840F277734E
:1009700024F030FB404080F311884FF0030002DF89
:10098000636A0BB111F0AEFF94F84E3000266FF39E
:100990000003304684F84E300FB0BDE8F08F584861
:1009A000584ADFF850E1DFF83CC10694A8FB00018B
:1009B0004FF0910909FB081103F24718C2F80080B3
:1009C0004FF00209049309920DF1300842A3D3E9D4
:1009D00000234FF6FF7ACDE907E80295CDF8309075
:1009E000CDF814C0CDF80CA0FFF7CAFB4A46CDE9FC
:1009F00000503B46284603210EF09CFF414611F073
:100A0000FFFB00287FF462AF94F84E3043F00103FF
:100A100084F84E30D0E53C4905914AF2D832009234
:100A2000CDE90798CDE90300CDE9010006943B46E6
:100A3000012203210C950EF0D3FFDFE71226BBE560
:100A4000062B3FF4B6AE4FF4DA734FF41B70B9E6E1
:100A500011F048FF0326AFE54FF4F2734FF47F70B7
:100A6000B0E6214A2949224840F2747324F0B2FAD0
:100A7000404080F311884FF0030002DF6EE705F17C
:100A80007000A867C6E5072696E51C4811F0ECFB48
:100A900084423FF490AD40F26E73134A13491448F8
:100AA00024F098FA404080F311884FF0030002DFF1
:100AB00081E5584611F028FB504611F019FB072636
:100AC0007AE50E4811F0D0FB84423FF474AD4FF448
:100AD000EC63E2E7AFF300808D49FD1A07000000E8
:100AE00000CA9A3BBD2501009836030088370300F1
:100AF0003822030039110100FC240020E0240020EA
:100B0000002AE784382500205D28010074350300A1
:100B10002DE9F04F044690F8E93090F8E800834260
:100B20008BB00D4616460ED0C01A00F00300022806
:100B30001BD094F82D2194F82C319A4230D100200A
:100B40000BB0BDE8F08F94F8522112F00108F0D1FB
:100B500094F805C194F80411614500F06F83981E64
:100B6000012284F8E90084F8EA2094F8983194F896
:100B700099219A4206D094F89A2102F0060104299C
:100B800000F09F8394F8EA707A1E052A00F24883E9
:100B9000DFE812F05C00E002620246030903C401D0
:100BA00029480DF0F3FB58B394F82C3184F82D311B
:100BB0000379022243F0030342710371C271D4F836
:100BC000B03194F82E2102722BB394F85221910780
:100BD00021D494F8AB21D2071DD4D4F8BC21934280
:100BE00004BF1A68C4F8BC21D4F8B421B2B91A6899
:100BF000026018600368C4E96D000BB9C4F8C00155
:100C0000B4F8CC0000289AD1B4F8C630012B0ED924
:100C1000A4F8CC3093E7D4F8B42172B1D4F8B83149
:100C20001A68026018600368C4F8B801E5E7013388
:100C3000A4F8CC300BB0BDE8F08F0360C4E96C00C1
:100C4000C4F8B801D9E700BFA4270020A64F3B682D
:100C5000002B00F0FB84B4F83680628E94F80631E5
:100C60009044B04413F003031FFA88F840F08084E6
:100C7000B4F8EC90A8EB09021FFA82FA12043FF5CF
:100C800058AF94F8701194F8712194F8040184F825
:100C900005018A4294F8E80084F8E90009D094F844
:100CA000722102F00702052A04BF84F87111A4F82A
:100CB000CC303B689C4204BF00233B60D4F80071F9
:100CC000002F00F07F853868002800F07B85B4F89D
:100CD0000831E28D4168C4F800119342B4F80A115A
:100CE000B4F80CC100F0C486A28DFA804FF0110E4A
:100CF0000022FB833984A7F822C087F804E03A7702
:100D0000394611F007FA11F00FFA2368002B09DABF
:100D1000D4E9011223F000438A422CBFA9186918B4
:100D20002360CD1AE38DB4F8087113FB0AF39BB26C
:100D3000B3FBF7F117FB01F292B293421FFA81FB6A
:100D400080F02E85D31A694840F2E24202FB03F399
:100D5000A3FB000162A3D3E90023FFF711FA20F0FF
:100D60007F400544628E94F93D30A9EB0808D844D1
:100D70003244904440F2E249002BA4F8328009FB4F
:100D800007F7C0F22F855A4A5A495B4840F6551377
:100D900024F020F9404080F311884FF0030002DF77
:100DA0004FF000083E46B4F80C21B4F80A11534B3A
:100DB0005348218642F2107C0CFB02723B443844BB
:100DC000B3FBF7F301F1060C013AB2FBF7F2B0FB0B
:100DD000F7F798B2A4F8C6206045B4F80821A4F843
:100DE000D200A4F8CA70E28502DD401A063880B24B
:100DF00094F80631A4F8CE00580744BF0023A4F8A5
:100E0000C8300221012018F029FD0022022181466C
:100E100001200DF05DFB3B494FF4E47220460DF0DC
:100E2000E9FAC21C5FFA82FA374B0094524601215C
:100E300000200EF041FE30F002030CD02C4A334962
:100E40002D4840F6841324F0C5F8404080F3118803
:100E50004FF0030002DF254BA6FB0367304620A3BB
:100E6000D3E900233946FFF78BF9294AE368049355
:100E700020F07F4BABFB0223072000FB0B33B01AA3
:100E800067EB0301089406944FF47A720024002360
:100E9000204F214E079705960394FFF771F92B46D3
:100EA000CDE901B0CDF800802046524601210EF078
:100EB00097FD30F002030CD00D4A14490E4840F65D
:100EC0009E1324F087F8404080F311884FF0030010
:100ED00002DFB9F1000F40F0E4856FF08B002FE6E0
:100EE0008D49FD1A070000002027002000CA9A3B08
:100EF000A4370300784E0300382203007FC3C901E2
:100F0000FF5962025825002005310100E438030032
:100F10008D49FD1AAD3001009D5F0100618EE28EAA
:100F200094F8EC300A44324496B2DA07194600F1DC
:100F30001582B4F8EE20B61A30043FF5FAAD94F8F5
:100F4000642094F8658094F8E800B4F8627084F83E
:100F5000E90013F01C0F02F0070908F0070840F041
:100F6000A985B4F8606013F0E00F08D094F865200C
:100F70005B0963F3020284F865204FF4A47794F8C8
:100F8000AC3194F86420D4F80051C3F3C00363F388
:100F9000C30284F86420002D00F0AC852868002886
:100FA00000F0A88594F864E094F865204368C4F8DC
:100FB00000318907CEF3020C0EF00703C2F3020ED4
:100FC00002F0070202D4994500F07C87A38DEB80E4
:100FD0001522002385F81DC085F81EE02A712B77A5
:100FE000294611F097F8D4F80051002D00F0E5855E
:100FF0002868002800F0E185B4F860304268C4F841
:101000000021B3420AD3B3F5A47F07D8B4F8623005
:10101000BB4203D3B3F5A47F40F26887A4F86060B5
:10102000A4F862702B7FA28DEA8043F003030221B3
:10103000092229712B776A77B4F85E30B4F85C2006
:101040002B841523AA84EB7729466F84EE8411F054
:1010500061F811F069F86CE594F8EC2012F00305E2
:1010600000F0248294F93D30002BBFF662AD012DD3
:101070007FF45FADB5480DF089F9064600283FF4CE
:1010800058AD0379042243F003030D2100F1080554
:1010900003714171C2710C21284616F09DFAB368A4
:1010A000F268C4F8FA20C4F8F630D4F8B0313269E6
:1010B000C4F89C20002B00F0E28694F8522195079A
:1010C00000F1DD8694F8AB21D00700F1D886D4F882
:1010D000BC21934204BF1A68C4F8BC21D4F8B421DF
:1010E000002A01F04881D4F8B8311A6832601E60D5
:1010F0003368C4F8B861002B01F0CA8011F038F8E9
:10110000014600283FF415AD0B7FA28DCA8043F045
:10111000030302251720032248770B770D71CA7746
:10112000D4F85531D4F859214A620B6294F85331FE
:1011300081F8283094F8543181F82930086810F08B
:10114000E9FF10F0F1FF94F8EC3065F3010384F847
:10115000EC30EEE4618EE28E94F8EC300A443244D6
:10116000D90796B200F15581B4F8F220B61A3604C8
:101170003FF5DFAC94F8E83084F8E930234604F119
:10118000380053F8ED2FA2631B79037105210DF090
:10119000C9FA94F83D30012260F3050384F83D302C
:1011A00084F8C421C5E469480DF0F0F800283FF444
:1011B000C0AC94F8E83084F8E93001230279437137
:1011C000D4F8B03142F0030212210271C171002B38
:1011D00000F0DB8294F85221950700F1D68294F852
:1011E000AB21D10700F1D182D4F8BC21934204BFD6
:1011F0001A68C4F8BC21D4F8B421002A01F05D803B
:10120000D4F8B8311A68026018600368C4F8B801ED
:10121000002B00F0E284B4F8CA30A4F8CC3088E4A3
:101220004B4A4C494C4840F2BF3323F0D3FE404078
:1012300080F311884FF0030002DF7AE494F819116B
:1012400094F81871B94253D194F8251194F8247187
:10125000B94200F01983C91BCF077FF56AAC94F837
:101260002631D80740F14A879F0740F1348710F0B4
:101270007FFF014600B394F8243184F82531037FC1
:10128000A28DC28043F003030B77022006220C23B9
:1012900008714A77CB7794F82701B4F82821B4F87D
:1012A0002A31A1F8233081F82000A1F82120086814
:1012B00010F030FF10F038FF94F8E80094F8E930AF
:1012C00032E402F00701062901F2988101A050F8EA
:1012D00021F000BFE1160000850B0000850B000027
:1012E000850B00005D1600005D160000850B0000F8
:1012F000C91BC8077FF51DAC94F8DC3013F001075B
:1013000000F00A8410F034FF01460028D4D094F88D
:10131000183184F81931A78DC0F82080C0F82480D6
:10132000022309200A7F0B714877D4F82031CF803F
:1013300042F00302C3F307270A771A0CC87781F833
:10134000203081F8217081F82220B0E7A427002006
:10135000A4370300784E030038220300022010F067
:10136000E9FE074600283FF4E4ABBA480DF00EF85A
:10137000054600283FF4DDAB94F8EC306FF3000332
:10138000C3F38200C3F3421250EA020884F8EC303F
:10139000DBB240F0828694F8E820A4F8EE809B0748
:1013A00084F8E92000F13D874346414605226A71F1
:1013B00085F808802A796B72D4F8B031698142F0DF
:1013C000030218212A71E971002B00F00A8494F8B5
:1013D0005221970700F1058494F8AB21D60700F15C
:1013E0000084D4F8BC21934204BF1A68C4F8BC211D
:1013F000D4F8B421002A00F09187D4F8B8311A68E3
:101400002A601D602B68C4F8B851002B7FF491ABA3
:1014100018E190480CF0BAFF00283FF48AAB238E05
:1014200094F8EC10027933440633A4F8F23042F019
:10143000030223466FF300010826012584F8EC100F
:1014400046710271C57153F8ED2F82601B790373E9
:10145000D4F8B031B4F8F220A0F80D20002B00F041
:10146000338394F85221920700F12E8394F8AB2134
:10147000D70700F12983D4F8BC21934204BF1A682E
:10148000C4F8BC21D4F8B421002A00F02C87D4F889
:10149000B8311A68026018600368C4F8B801002BFC
:1014A0007FF447ABC4F8C001FFF743BB69480CF0B9
:1014B0006DFF804600283FF43CAB94F93D30002B93
:1014C00000F1040980F26A8494F87E301B0700F171
:1014D0005D8694F8ED50002D00F01185037994F8A5
:1014E000DC2043F00303D607037140F18086D4F873
:1014F0001C31580740F17B861122032388F80950DC
:1015000088F8072088F8083088F80570D4F8B031DA
:10151000002284F8ED20002B00F04A8594F8522137
:10152000910700F1458594F8AB21D20700F1408581
:10153000D4F8BC21934204BF1A68C4F8BC21D4F883
:10154000B421002A00F05887D4F8B8311A68C8F8D6
:101550000020C3F80080C4F8B881D8F80030002B10
:1015600000F0978594F8E83084F8E930FFF7E1BAA5
:10157000012010F0DFFD064600283FF4DAAA3548C6
:101580000CF004FF054600283FF4D3AA10F0F0FD4C
:1015900094F80611238E3268D4F8000150606FF37E
:1015A0000101434484F8061106332979C4F8006127
:1015B0009BB20C22A4F8EC3041F003016A71D4F81C
:1015C0001021D4F8B001244E29710021E971A6FB45
:1015D000021294F81461B4F808112E72C2F38F222B
:1015E000B4F80A61A5F80B10B4F80C11A5F80F10A7
:1015F000A5F80D60A5F81130A5F80920002800F025
:101600006E8294F852319E0700F1698294F8AB31F2
:10161000D90700F16482D4F8BC31984204BF036852
:10162000C4F8BC31D4F8B431002B00F06486D4F88F
:10163000B8311A682A601D602868C4F8B8510028BB
:101640007FF477AAC4F8C051FFF773BA3C60FFF784
:1016500002BB00BFA42700205917B7D102F0070230
:10166000B4F89CC1B4F8A011B4F89E91B4F8A2816A
:10167000A4F85EC0042AA4F8621000F0BA8494F8BA
:101680009A31062262F3020384F89A31D4F8007189
:10169000002F00F09A843868002800F096843B7F81
:1016A0004268B4F82CE0C4F8002143F0030302229E
:1016B0003B774FF0090A1523A7F806E0A7F820C0EA
:1016C00079843A71FB773946A7F82490A7F82680E9
:1016D00087F81DA010F01EFD10F026FDFFF752BA8E
:1016E000DB480CF053FE00283FF44CAA94F89A31E2
:1016F000B4F89E71B4F8A221A4F8D6700121A4F820
:10170000D82061F30203092284F89A3142710279E8
:10171000D4F8B031878142F003024FF0140CC1724B
:10172000C173002702711B21482280F807C047724D
:10173000017282728273002B00F01B8394F8522195
:10174000920700F1168394F8AB21D70700F11183BB
:10175000D4F8BC21934204BF1A68C4F8BC21D4F861
:10176000B421002A00F0FF85D4F8B8311A6802606D
:1017700018600368C4F8B801002B00F04385B4F882
:10178000CA30A4F8CC30FFF7FDB9D4F8B421002A50
:101790007FF436AD0360C4E96C00C4F8B80137E5E6
:1017A00007FB113340F2E242AA489BB202FB03F36B
:1017B000A3FB0001A4A3D3E90023FEF7E1FC2D1A4B
:1017C000FFF7D0BAA44AA549A5484FF40E6323F009
:1017D00001FC404080F311884FF0030002DF3868BD
:1017E000FFF775BAE26C636C9A4E03FB1A23E3644D
:1017F00016F032F9804694F8DC00C0F3820016F04F
:101800002DF908EB000307FB03F39648E26C94F80C
:10181000141103F5742303F23F23A0FB03034FEAE3
:10182000934A0AFB0BF07B080244963B9A4228BF7E
:101830001A4609FB01FC4FF0000EC4E91232A0FB6E
:10184000060181A3D3E90023C4F854C0C4F8E4E03E
:10185000C4F844A0FEF794FCD4F8103184468248C2
:10186000A0FB0330800A09FB00F0A0FB060176A371
:10187000D3E90023A5EB0C05FEF782FCA7EB0A06D3
:1018800020F07F48FFF78FBA94F8717194F87011C7
:101890008F4200F0B481754F3968002900F0E2846E
:1018A0008C427FF446A994F8721101F007010529D2
:1018B00000F2C2860FF2040E5EF821F0A9190000B2
:1018C00025190000D5180000290B0000290B000085
:1018D000290B000090073FF52CA910F049FC0146A8
:1018E00000283FF4E9AC037F94F87221032060F3F1
:1018F0000202034384F87221A08D0B77022718237C
:101900000F714B77B4F87421B4F87631C880B4F80D
:1019100078010A84B4F87A214B840F238884CA841E
:10192000CB77C4E494F87381B8F1000F40F03585AB
:1019300094F93D30002BC0F2708594F8723194F820
:101940007C11C4F81081052262F30203012284F89D
:10195000723184F81421002900F01886B4F874312B
:10196000B3FBF1F3134413FB01F39BB294F8722120
:1019700094F80611A4F80831C2F3C0039B0021F0CB
:10198000070243F002031343B4F87811B4F87A2144
:1019900084F806310CF1FF3C84F805C1A4F80A1163
:1019A000A4F80C21FFF7C5B82948B4F83680B4F87C
:1019B00032900CF0EBFC014600283FF47DAC94F82B
:1019C00072010A794FF0040C6CF3020042F003023A
:1019D0004FF0180C84F8720108EB09030A7181F8C2
:1019E00005C0B4F874C1B4F87601B4F87821A1F850
:1019F00008C03344B4F87AC148818A810F2000229C
:101A0000A1F811304FF0FF33C8714B758B75CB7552
:101A10000B764B768B76CB760B774B778B77204696
:101A2000A1F80EC00A74CA740A7511F03BFAB4F832
:101A3000CA30A4F8CC3094F8E80094F8E9303C605F
:101A4000FFF772B8AFF300808D49FD1A0700000060
:101A5000A427002000CA9A3BA4370300D038030013
:101A60003822030083DE1B435917B7D120270020FB
:101A7000228E8A427FF438A940F2E24202FB03FB45
:101A800042F21072B4F8C6E002FB0CB2013AB2FBAB
:101A9000FBF292B296457FF427A903233B71FFF72F
:101AA0002FB90122104602210CF012FD6FF08B00BD
:101AB000FFF746B8C3F3820060F3020284F86420A3
:101AC0004FF4A476FFF74FBAD4F8B421002A7FF47C
:101AD000DEAC0360C4E96C00C4F8B801DFE4D4F8FC
:101AE000B431002B7FF4A3AD2860C4E96C55C4F871
:101AF000B851A4E5A44AA549A54840F6596323F086
:101B000069FA404080F311884FF0030002DF286833
:101B100094F8EC10FFF746BA9E480CF037FC00280A
:101B20003FF4CAAB94F819219B4BC4F81C31013A1D
:101B3000092384F81921437194F93D108760C76027
:101B4000D4F81C310372C3F307221B0C4272837258
:101B50000279D4F8B0310029ACBF08210E2142F03F
:101B60000302C1710271002B00F0958194F852219B
:101B7000910700F1908194F8AB21D20700F18B819D
:101B8000D4F8BC21934204BF1A68C4F8BC21D4F82D
:101B9000B421002A00F03984D4F8B8311A68026000
:101BA00018600368C4F8B801002B00F02883B4F86B
:101BB000CA30A4F8CC30FFF77FBB734A734974482E
:101BC00040F6856323F006FA404080F311884FF019
:101BD000030002DF2868FFF70FBAC4F8C001FFF75F
:101BE0001ABBD4F8B421002A7FF407AC2B60C4E9F7
:101BF0006C55C4F8B851002B7EF49BAF22E594F8E5
:101C0000987194F89921BA4200F0FE8194F89A11E3
:101C100001F00702062A00F200850FF2080C5CF8BA
:101C200022F000BFCD1C0000290B0000290B000092
:101C3000290B0000411C0000411C0000290B000082
:101C4000B4F89C31A4F85E3001F00703B4F8A02189
:101C5000B4F89E91B4F8A281A4F86220042B00F09D
:101C600092830B46062262F3020384F89A31D4F879
:101C70000071002F00F068833868002800F064834A
:101C80003B7F4268B4F82CC0C4F8002143F0030342
:101C90003B77022209237B773A71B4F85E10B4F8DF
:101CA00062207A841523FB77A7F806C03984A7F849
:101CB00024903946A7F8268010F02CFA10F034FA58
:101CC00094F8E80094F8E930FEF72EBF31480CF0A4
:101CD0005DFB034600283FF4EFAA94F89A21B4F87C
:101CE0009E71B4F8A211A4F8D6700120A4F8D810FF
:101CF00060F30202092184F89A2159711979D4F804
:101D0000B0219F8141F003014FF0140CD872D873B9
:101D1000002719711B20482183F807C05F721872D1
:101D200099729973002A00F0048394F8521189077C
:101D300000F1FF8294F8AB11CF0700F1FA82D4F8DA
:101D4000BC118A4204BF1168C4F8BC11D4F8B411A4
:101D5000002900F04584D4F8B82111681960136097
:101D6000C4F8B8311A68002A7FF421AFC4F8C03132
:101D70001DE7D4F8B421002A7FF4F6AC0360C4E96F
:101D80006C00C4F8B801F7E4A4370300D0380300AE
:101D900038220300A42700207F41010004F17F06C0
:101DA00033462A4604F1EE0104F25D1017F0FCF808
:101DB000D4F88B20C4F8AC20D4F87F00D4F883107A
:101DC000D4F88730C4F8A0002246C4F8A830C4F87C
:101DD000A41052F8981F94F89700526894F87E3037
:101DE000C4F8BD2094F8B820C4F8B91043F0080333
:101DF00065F3000042F0010284F8970084F87E3019
:101E000084F88F5084F8905084F8915084F8925060
:101E100084F8935084F8945084F8955084F8965040
:101E2000C4F8B0504946C4F8B45084F8B8202046ED
:101E300011F006FAD4F8B031002B37D094F85221C3
:101E4000910733D494F8AB21D2072FD4D4F8BC2116
:101E5000934204BF1A68C4F8BC21D4F8B421002A04
:101E600000F0BF82D4F8B8311A68C8F80020C3F86F
:101E70000080D8F80030C4F8B881FFF770BBD4F800
:101E8000B421002A7FF42FA93360C4E96C66C4F83A
:101E9000B861FFF730B9D4F8B421002A7FF47CAEE2
:101EA0000360C4E96C00C4F8B8017DE6D4F8B4213D
:101EB000002AD7D1C8F80030C4E96C88C4F8B881CA
:101EC000FFF74DBB90457FF481A803232B71294672
:101ED00010F020F9D4F80051002D00F0008328689C
:101EE000002800F0FC824368C4F8003103232B7102
:101EF000294610F00FF910F017F9FEF71ABE04F199
:101F00007F0633462A4604F1EE0104F25D1017F015
:101F10004BF8D4F88B20C4F8AC20D4F87F00D4F868
:101F20008310D4F88730C4F8A0002246C4F8A41067
:101F3000C4F8A83052F8981F94F8B8005268C4F852
:101F4000BD20C4F8B91094F87E2094F8971098F842
:101F5000043084F88F5042F0080241F0010165F32B
:101F60000000012684F87E2084F8905084F8915077
:101F700084F8925084F8935084F8945084F89550E3
:101F800084F89650C4F8B050C4F8B45084F8971050
:101F900084F8B80043F00303052288F8056088F848
:101FA000043088F80720D4F8B031002B7FF4B6AAAB
:101FB000D4F8B421002A7FF4C7AAC8F80030C4E9D5
:101FC0006C88C4F8B881FFF7C8BACF4ACF49D04867
:101FD00040F6295322F0FEFF404080F311884FF075
:101FE000030002DF3868B4F85EC0B4F86210FFF78F
:101FF00056BBB4F8A421002A40F04E8184F89931F0
:10200000A4F8CC20FFF742BB94F8A82194F8A911BA
:1020100091423EF48EAD94F8AA1101F0030003281A
:1020200000F06C8200287EF484ADBA480CF0AEF962
:10203000014600283FF440A994F8AA3194F8AC2155
:1020400094F8AB71012060F30103C3F3820060F3E5
:102050000202C3F3421060F30612C7F34007087987
:1020600084F8AA3167F3C30284F8AC21C3F3820C6D
:1020700040F00300C3F34213032716220871CA710C
:1020800081F808C04B724F710022204610F00AFF01
:102090008DE5C4F8C081FFF765BA238E334406335B
:1020A000A4F8EE3010F064F83B68D4F800215A60D0
:1020B000C4F8007110F05CF80368D4F800215A608D
:1020C00094F8EC30B4F8EE10C4F80001C3F38208C1
:1020D0005B09FFF76BB940F648338B4A8E498C4851
:1020E00022F078FF404080F311884FF0030002DFB8
:1020F00094F8E80094F8E930FEF716BD85480CF036
:1021000045F900283FF4D8A894F8252194F8263101
:10211000013A84F82521027943F00103062184F86D
:10212000263142F003024171D4F8B03102710B2123
:102130006FF00E020C270172427205214FF0FF3240
:10214000C7718172C2720273002B00F0BE8094F8D6
:102150005221910700F1B98094F8AB21D20700F128
:10216000B480D4F8BC21934204BF1A68C4F8BC21DF
:10217000D4F8B421002A00F00382D4F8B8311A68E8
:1021800002601860C4F8B80103680DE549462046AE
:1021900011F056F8D4F8B031C3B394F85221970730
:1021A00034D494F8AB21D60730D4D4F8BC21934270
:1021B00004BF1A68C4F8BC21D4F8B421002A00F086
:1021C0008681D4F8B8311A68C8F80020C3F80080B6
:1021D000C4F8B881D8F80030002B00F0818094F862
:1021E000523123F0030384F85231FFF7BBB90D23BA
:1021F00088F8085088F807300227FFF785B9C4F837
:10220000C001D4E4C4F8C001FFF7B9BAD4F8B421CE
:10221000002AD6D1C8F80030C4E96C88C4F8B88167
:10222000D8E70FF0A5FF1523A28D87F81C803B711E
:1022300094F864303868FA80C3F302037B7794F82B
:102240006530C3F30203BB7739460FF063FF0FF02D
:102250006BFF94F8EC30B4F8EE10C3F382085B091E
:10226000FFF7A4B894F8723103F00703052B00F2CE
:10227000E38101A151F823F0A919000025190000FC
:10228000D5180000330B0000330B0000330B0000A7
:10229000C4F8C061FEF732BF94F89A01B4F8A67191
:1022A000A4F89E21002363F3020084F89A01A4F8A5
:1022B000A431A4F8A271FFF7E9B91A6802601860A6
:1022C0000368C4E96D00FEF7A3BFD4F8B421002A67
:1022D0007FF453AF0360C4E96C00C4F8B80153E75E
:1022E000C4F8C0817BE71A68026018600368C4E91B
:1022F0006D00FFF7D4B803682B6005602868C4E957
:102300006D55FFF79CB900BFA4370300D038030018
:1023100038220300A4270020784E03001A682A60A0
:102320001D602B68C4E96D55002B7EF402ACFFF7ED
:1023300089B9D4F8B41100297FF40DAD1A60C4E94D
:102340006C33C4F8B8310DE5BD4ABE49BE4840F60D
:10235000295322F03FFE404080F311884FF00300E4
:1023600002DF38688CE41A68026018600368C4E908
:102370006D00FFF701BA1A6832601E603368C4E965
:102380006D66FEF7B8BEB4F8A421002A40F08F8035
:1023900084F89971A4F8CC2069E4AC480BF0F6FFFE
:1023A000014600283EF488AF037943F003030B7124
:1023B000112003220F23C8714A710B7294F87331F4
:1023C0004B722046002210F06DFD94F8703184F8B5
:1023D000713100233B6094F8E80094F8E930FEF78F
:1023E000A3BB1A68C8F80020C3F80080D8F80030F2
:1023F000C4E96D88FFF7B3B81A68C8F80020C3F8BD
:102400000080C4E96D88FFF7A8B81A6802601860F8
:102410000368C4E96D00FFF7C7BB8C480BF0B6FF3B
:10242000014600283EF448AF0379182243F0030325
:1024300003714271B4F87421B4F87631B4F87801BC
:102440000A81B4F87A214B8110238881CA81CB712B
:1024500094F87C310B74B4F87E31B4F88001B4F890
:102460008221A1F81130B4F88431A1F81300B4F836
:102470008601A1F81520B4F88821A1F81730B4F826
:102480008A31A1F81D30A1F81900A1F81B202046BF
:10249000424610F007FD94F8703184F8713194F8D9
:1024A000E80094F8E930C7F80080FEF73DBB002053
:1024B0000B4660F30203A4F89E21B4F8A62184F829
:1024C0009A31A4F8A401A4F8A221FFF7D0BB1A689E
:1024D000C8F80020C3F80080C4E96D887AE6584A3D
:1024E0005849594840F6686322F074FD404080F333
:1024F00011884FF0030002DF2868F4E4080784F82D
:10250000A921C1F382024DD594F8AA21022161F3D9
:10251000840284F8AA2194F8AA2157064FEA52119E
:1025200038D5022161F3471284F8AA2194F8AA1140
:1025300094F864C094F8650094F8AB21C1F3820765
:102540000CF0070C00F00700C2F38002BC4508BF86
:1025500000275200B0EB511F42F001024FEA511127
:1025600008BF002142EA4112023B42EA87020621EB
:1025700084F8E93084F8EC2084F8EA10FEF702BB16
:102580001A6802601860C4E96D00FDE5B4F87631A0
:10259000FFF7ECB9C8070FD5012161F3471284F8A2
:1025A000AA21C3E7D10710D594F8AA21012161F32C
:1025B000840284F8AA21AEE711F0040118BF0421B7
:1025C00061F3471284F8AA21B0E712F004020ED09A
:1025D00094F8AA21042161F3840284F8AA219AE7DD
:1025E000116819601360C4E96D33FFF7BBBB94F841
:1025F000AA1162F3840184F8AA118CE7104A1449E5
:10260000114840F6515322F0E5FC404080F3118818
:102610004FF0030002DFFEF7B5BA094A0C490A4839
:1026200040F6515322F0D6FC404080F311884FF021
:10263000030002DFFEF740BE40F655434DE500BF04
:10264000A4370300D038030038220300A427002059
:10265000784E0300000000002DE9F04F1C4613687F
:102660000D46D3F800A031F82ECF2346174653F875
:102670000C6B8A78A4F80CC09A70D5F82A30A36045
:102680002B46814653F83A2FE26104F11C001B7976
:10269000037193B005210CF045F894F8213000F057
:1026A0003F0060F30503012884F821300AD995F82A
:1026B0003F3003F01F02053AC3F304010B2A84F8EC
:1026C000221002D913B0BDE8F08F3A6896F8DC10FA
:1026D00000209060B5F83480A4F8128095F8362078
:1026E00095F8370042EA0022A2825B0963F3840175
:1026F0006B8EADF82C3086F8DC1040F2E24303FB21
:1027000008F815F0A9F9834696F8DC00C0F38200BA
:1027100015F0A4F9584408FB00F0DFF824E395F81D
:1027200031C0A18ABC4A00F5742000F23F20AEFB04
:1027300000304FEA580E40F2E24303FB0CF3800CEA
:10274000AEF1960EA062E363C4F82CE0B5F838B0A1
:10275000B24842F2107303FB0B83424401F1060CB2
:10276000013BB2FBF8F2B3FBF8F3A6F8C63093B224
:1027700063454044A6F8D230B0FBF8F0A6F8CA0092
:1027800002DD5B1A063B9BB2A6F8CE302946A36851
:10279000C6F8E03051F81E0F2B7F8A88ADF8442030
:1027A0004FF4807CC3F38012A5F81CC08DF838204C
:1027B000C3F3401210908DF83C200A929AF82A0038
:1027C000BA7C0D910C9214F0FFFBDDE90C2105F1B0
:1027D0002B03002840F0ED80FF2AC5F82B009880DD
:1027E00005F1250300F0F180104605F11F020C935E
:1027F00013F06EFEAA7F0C9BBDF844101098C5F82C
:1028000025000232AA77998096F8DC30618AA28A84
:10281000AA86C3F3820385F838306986A5F836B0F6
:10282000304610F063FE29462082E8807D684846E5
:102830000FF070FC238AEB8014232B710A9B28680D
:10284000002B00F0D18094F809E0237A94F80BC0B3
:10285000A17A94F8212041EA0C2143EA0E234B404F
:1028600042F040020121638484F82120297729461F
:102870000FF050FC0FF058FC94F84900012100F0D3
:10288000070015F009F8664A00258146312300F259
:102890005240A0FB02013360C6E901555CA3D3E9B5
:1028A0000023FDF76DFCFA68D4F828C0A2F5AE74D9
:1028B000BDF82C2020F07F4040F2E24303FB0233BE
:1028C00002212A46F06001201C44A8EB0C080BF002
:1028D000FFFD504610F0A6F9821C524BCDF800A027
:1028E000D2B2284601210DF0E7F80128A4EB090433
:1028F00000F086809AF82830DB0779D4304610F053
:10290000F5FDDFF81CB1A8FB0B8941A3D3E9002337
:10291000054649464046FDF733FC434A069620F0FB
:102920007F4AAAFB0223072101FB0A3340F245112B
:10293000BF6808913D4907913D490591B8EB0200F8
:1029400069EB0301F368049300264FF47A720023C5
:102950000396FDF715FC2EA3D3E900238446A4FBC0
:102960000B01CDE901ACFDF70BFC033520F07F40F6
:10297000EDB2313F3B4600902A46304601210DF032
:102980002FF830F002030CD02A4A2B492B484FF481
:10299000A37322F01FFB404080F311884FF0030027
:1029A00002DF01221046022113B0BDE8F04F0BF008
:1029B0008FBD2846FF2A50F824CFC5F82BC0808849
:1029C000988005F125037FF40FAF0022BDF8441075
:1029D0001098C5F825209A809DF83830A5F8231066
:1029E000AB77C5F81F000FE79DF83C302B773EE72B
:1029F000002301220093184611460DF05DF87DE793
:102A00000FF03EFC82453FF475AF13F0A3FA71E777
:102A10008D49FD1A070000007FC3C901FF596202FA
:102A200000CA9A3B815F01008D49FD1A255F0100B4
:102A30009D5F0100B4390300E4380300382203002D
:102A400083DE1B4308B519481EF008FB184B1860BD
:102A500040B1174B186883681B68164998470028CF
:102A600012DB08BD4FF00001012363F302016FF395
:102A7000C501114B114A9B1AC3F3C90363F38F11AC
:102A80000F4802F055F8E4E74FF00001012363F32B
:102A900002016FF3C501084B084A9B1AC3F3C9032F
:102AA00063F38F11074802F043F8DAE7B812030026
:102AB0003017002064130300DC110300F41003003E
:102AC000C0120300E8120300014B1870704700BFEA
:102AD000A83300204FF47A6303FB00F0030B4FF49C
:102AE000966000FB03F0024BA3FB003080097047A7
:102AF000D34D621041F2670398421BD80F4B1A88DE
:102B000022B15988814201D90433F8E759888142BA
:102B10000ED810B433F8044CA41A401A00FB04F089
:102B200033F8023C591AB0FBF1F0104410BC704766
:102B30001046704742F21070704700BF50130300F8
:102B400008B50A4B186883685B6809499847094BC0
:102B5000B3F90000FFF7BEFFFFF7CCFF064BA3FB66
:102B600000304009054B186008BD00BF3017002039
:102B70006C130300281700201F85EB512C17002031
:102B800008B5FFF7DDFF154B1B789BB14FF0000236
:102B9000032363F302026FF3C502114B11495B1A61
:102BA000C3F3C90363F38F120F4B19680F4801F089
:102BB0004FFE08BD4FF00002032363F302026FF3E0
:102BC000C502074B07495B1AC3F3C90363F38F12AE
:102BD000054B1968064801F03BFEEAE7A8330020E0
:102BE000DC110300F41003002C1700200C13030069
:102BF0002C13030008B54FF00002032363F3020215
:102C00006FF3C502094B0A481B1AC3F3C90363F3E8
:102C10008F12084801F01CFE002000F0B1FA0120DC
:102C200000F06CFC22F00FF908BD00BFDC110300BE
:102C3000F41003008013030001B1704708B50323AB
:102C400063F302016FF3C501094B0A4A9B1AC3F3F0
:102C5000C90363F38F11084801F06AFF012000F0F7
:102C60008FFA002000F04AFC22F0EDF808BD00BF0A
:102C7000DC110300F41003002C2C030000B583B01A
:102C800007F03CF80023009303221649164824F06D
:102C900018F998B94FF00001032363F302016FF3B1
:102CA000C501124B124A9B1AC3F3C90363F38F1178
:102CB000104801F03DFF03B05DF804FB01464FF002
:102CC0000002012363F302026FF3C502074B0848B9
:102CD0001B1AC3F3C90363F38F12074801F0B8FD51
:102CE000E9E700BF2414030098020020DC11030070
:102CF000F4100300C01303009C13030008B5052261
:102D00000549064802F056FB01220549054802F034
:102D100051FB002008BD00BFE4130300EC130300C7
:102D20009C390300F813030010B5002006F0FEFBE9
:102D3000F8B923F06CF9FFF7E1FF1A4C0023236088
:102D4000194A626044F8083F184807F0CDFABFF30B
:102D50005B8F54E8003F43F0010244E80021002962
:102D6000F7D1BFF35B8F13F0010F15D000F0FCF922
:102D700010BD01464FF00002012363F302026FF31E
:102D8000C5020B4B0B481B1AC3F3C90363F38F1225
:102D9000094801F05DFDEBE7024908482DF083F991
:102DA000E4E700BF341700207D2C000084020020DF
:102DB000DC110300F410030004140300801600204B
:102DC00000B585B0184A0392131D029302F108035F
:102DD000019302F10C03009302F110031432134922
:102DE00020F00CFA06280CD10F484369A3F26C734B
:102DF00043610369013B03611FF0A6FF05B05DF865
:102E000004FB4FF00001012363F302016FF3C501DE
:102E1000074B084A9B1AC3F3C90363F38F11064893
:102E200001F086FEE0E700BF601700203C140300BD
:102E3000DC110300F41003005014030008B502482D
:102E4000FFF7BEFF08BD00BF7014030038B52DF0BA
:102E50002BFC4B01420143EAD064131A64EB0102DC
:102E6000940044EA93749D0022462B1841EB020221
:102E7000D10041EA5371D800C20B42EA4142C80B6B
:102E80000E4B19685C68511A60EB04040C4D296004
:102E90006C601A6058604FF00001032363F3020175
:102EA0006FF3C501074B084A9B1AC3F3C90363F3C9
:102EB0008F11064801F03CFE38BD00BFE00F002036
:102EC000D80F0020DC110300F41003008414030069
:102ED00008B503460288A2F26C72094842619A78EA
:102EE000013A0261DA78C2601A7982605A794260E6
:102EF0009B7903601FF028FFFFF7A8FF08BD00BF04
:102F00006017002008B5FFF7A1FF4FF47A72002385
:102F10000649D1E90001FDF733F9054B1A6802446F
:102F20001A6018461FF010FF08BD00BFD80F002020
:102F30006017002070B50B4E0B4D33460B4A202115
:102F4000284620F0D1FE0A4C33460A4A202120466A
:102F500020F0CAFE284600F0ABFA204600F0BAFA8C
:102F600070BD00BF60170020841700209414030078
:102F7000401700209C14030008B5002202490120DC
:102F800007F02AFB08BD00BF8D2F000000B583B0FD
:102F900000238DF8043042F62B23ADF80630134B96
:102FA000019A1A601249134A4A6001220A814FF6B7
:102FB000FF72CA8103220A740B600AF097FD10B9F0
:102FC00003B05DF804FB4FF00001012363F302013D
:102FD0006FF3C501084B094A9B1AC3F3C90363F396
:102FE0008F11074801F0A4FDEAE700BFE4170020B5
:102FF000B017002001310000DC110300F4100300C1
:10300000A814030070B586B00288C3781344017910
:103010000B4441790B448179CB4232D004460326DC
:103020004FF0000366F302036FF3C5031E4D1F4903
:103030006D1AC5F3C90565F38F130192C278029228
:10304000027903924279049282790592052201A9BC
:10305000174801F001FD174B2068616803C32289FE
:103060001A802046FFF734FF4FF0000166F302019B
:103070006FF3C50165F38F110F4801F059FD06B0DC
:1030800070BD4FF00001022363F302016FF3C5012D
:10309000054B064A9B1AC3F3C90363F38F11074814
:1030A00001F046FDEBE700BFDC110300F410030064
:1030B00008150300A417002040150300CC140300DA
:1030C00038B5BDF810408BB119467CB10A4D284681
:1030D00050F8043B03EB8303224600EB43002DF042
:1030E00023FC2B681C442C60012038BD0348FFF7EB
:1030F00089FF0020F9E700BFC4170020C81700208F
:1031000010B591B10A46114900234B60104C0C6078
:10311000104CCC60128A0A814FF6FF724A810E4A27
:1031200013600AF075FE002010BD032363F3020153
:103130006FF3C501094B0A4A9B1AC3F3C90363F332
:103140008F11084801F0F4FCEDE700BFD417002010
:10315000C1300000E4170020C4170020DC11030078
:10316000F41003005C15030008B50022024903486F
:103170002DF0CEFA08BD00BF792F0000E80F002027
:1031800000B583B060B14FF4F0120023CDE9002305
:103190000022002304481FF01BFA03B05DF804FB73
:1031A00001482DF0C1FAF8E7E80F002008B50D48F6
:1031B0001DF054FF0C4A106083681B6898474FF05D
:1031C0000001032363F302016FF3C501074B084AB3
:1031D0009B1AC3F3C90363F38F11064801F0A8FCDF
:1031E00008BD00BF7C150300E8170020DC110300B8
:1031F000F41003008415030008B5034B18688368B6
:103200001B68984708BD00BFE817002008B5034BAE
:10321000186883685B68984708BD00BFE8170020FE
:1032200000B583B0FFF7F2FF00220023CDE90023B1
:103230004FF42032002304481FF0CAF921F007FEA2
:1032400003B05DF804FB00BF2010002010B582B071
:103250000B4B1868C46883685B6801A998470346EC
:1032600018B92168019A4A40019213B9019BC3F32E
:103270008003581E18BF0120FFF726FC02B010BDC6
:103280000818002070B584B04C481DF0E7FE0446D5
:103290004B4B18608668C56883681B68494A0221E1
:1032A000984770B92B6823F004032B60B36943B1CE
:1032B000A3689D694FF4C0234FF4A0320221204639
:1032C000A847414B414A5A6004229A603B481DF08E
:1032D000C5FE04463E4B18608668C56883681B6857
:1032E0003C4A1E21984770B92B6843F080432B60FD
:1032F000B36943B1A3689D694FF400334FF4A03222
:103300001E212046A847344B344A5A604FF0804271
:103310009A602B4B18688368DB6913B101222A4934
:1033200098472B4B18688368DB6913B101222A493F
:103330009847274B1868C46883681B684FF400726D
:103340000321984718B9236823F008032360204B12
:1033500018688368DB6808219847214C00222149BE
:1033600020462DF0D5F900220023CDE900234FF4AB
:103370002032002320461FF02BF94FF4A4700021C7
:103380001EF0E4FD0E4B1868C46883685B6803A9EF
:103390009847034618B92168039A4A40039213B923
:1033A000039BC3F38003581E18BF0120FFF78CFB5B
:1033B000FFF7C0FDFFF7E4FB04B070BD98150300F4
:1033C0000818002000410700FC1700204D320000C3
:1033D000F817002011410300EC17002021320000F3
:1033E000201000203F4E020030B583B01BF09EFE3F
:1033F00018F0A4FC00211DF097FC244D28602449FE
:103400002CF0E7FA0024009423462246214628683F
:1034100026F0ABFC1BF08AFE18F090FC21461DF054
:1034200083FC1C4D28606FF0070300930A2322469B
:10343000214626F09AFC184928682CF0CAFA1BF09D
:1034400075FE18F07BFC21461DF06EFC134D2860C4
:1034500013492CF0BEFA022300932346224621464C
:10346000286826F082FC4FF00001032363F3020179
:1034700064F3C5010B4B0C4A9B1AC3F3C90363F3F6
:103480008F110A4801F054FB03B030BD141800201E
:10349000A01503000C180020A81503001018002028
:1034A000AC150300DC110300F4100300B815030091
:1034B00010B582B00146064C20682CF08AFA002133
:1034C00000910B460A46206826F04FFC02B010BD62
:1034D0001418002010B582B00146074C20682CF06B
:1034E00078FA0823009300231A461946206826F02C
:1034F0003CFC02B010BD00BF1018002008B538B168
:1035000001280BD10849094B18682CF062FA08BD54
:103510000749064B18682CF05CFAF8E70449034B9E
:1035200018682CF056FAF2E7A81503000C180020D2
:10353000CC15030038B503254FF0000165F30201F7
:103540006FF3C501144C154BE41AC4F3C90464F3BA
:103550008F11134801F0ECFA4FF0000165F30201FE
:103560006FF3C50164F38F110E4801F0E1FAFFF724
:103570003BFFFFF763FCFFF765FAFFF717FEFFF766
:1035800081FE21F060FCFFF7CFFB02F03BFF212022
:1035900000211EF0DBFCF8E7DC110300F41003004F
:1035A000D8150300F815030030B405460020642345
:1035B0000FE0303405F8014B0139C9B20130C0B217
:1035C000B2FBF3F403FB1422D2B20A4CA4FB034374
:1035D000DB0849B143B1B2FBF3F49A42E9D2012BC3
:1035E000E7D00028ECD0E4E709B100232B7030BC11
:1035F000704700BFCDCCCCCC08B50B6801330B6055
:10360000014B1B68984708BDAC020020014B1860B5
:10361000704700BFAC02002000B583B002460B46E5
:103620000021019101A9034800F04EF903B05DF8B3
:1036300004FB00BFF935000010B584B004460190CA
:1036400002910021039101A9054800F03DF9039B77
:10365000029A934201DA0022E254039804B010BDAA
:10366000A54F02002DE9F04383B0044608461546F5
:10367000238B13F0080F05D103F0070600230093F6
:10368000019369E0012909D043F02003238385F3E6
:103690001188BFF36F8F03B0BDE8F08343F01003D0
:1036A0002383F4E7204621F0D8FC57E0D4F81490A7
:1036B0004A466946204621F0E9FC00275AE0236982
:1036C0001F680621204621F0A1FC4FF0000951E0BF
:1036D00023695F680421204621F098FC4FF000091F
:1036E00048E023699F680521204621F08FFC4FF0B8
:1036F00000093FE0002246E0002244E043F00803D6
:10370000238385F31188BFF36F8F002944D1009B79
:103710002BB14B4642466946204621F02DFD17B19C
:1037200025492046B8474FF02003EFF3118583F376
:103730001188BFF36F8F238B23F008032383238B20
:1037400013F0100F2ED023F0100323830120268BBB
:1037500006F0070600289AD00228A3D0002896D0A9
:103760000128A3D00328AAD00428B1D00528B8D0B6
:103770000027B946238B03F00708B045BAD0A268EA
:10378000002AB9D001221146002AB7D1009A002A96
:10379000B4D1002FB2D1D2E74A464146204621F0AB
:1037A0003DFCB4E713F0200F04D023F02003238363
:1037B0000220CCE70020CAE7A751020010B404465B
:1037C0000268002013780749595C11F0040F06D0F5
:1037D00000EB8000013203EB40003038F2E722605A
:1037E00010BC7047215C03002DE9F04F83B0044604
:1037F0000D4601929A46DDF83080D378314A13F8AD
:1038000002B00BF0030B6F2B0FD006D9702B0FD02B
:10381000782B10D14FF0100923E0582B02D04FF035
:103820000A091EE04FF010091BE04FF0080918E0EC
:103830004FF0100915E04FF00A0912E0D2B2303211
:10384000D2B208F8012D32463B4620462946FCF705
:1038500097FCBD4208BFB44218D3D04516D90446E0
:103860000D464E4600274A463B4620462946FCF771
:1038700087FC092AE2D9BBF1010F03D0D2B257323B
:10388000D2B2DEE7D2B23732D2B2DAE7019B1B788E
:1038900013F0200F05D0B9F1080F06D0B9F1100FC1
:1038A00009D0404603B0BDE8F08F019A937843F009
:1038B00008039370F5E7019A937843F0100393702F
:1038C000EFE700BF215C03002DE9F04F93B00646FF
:1038D0000D469246039300249AF80000002800F059
:1038E000A884252808D00AF1010A2946B0470028F3
:1038F000C0F2A0840134EFE70023069307930B93F3
:10390000089309930A930AF101089AF80130252BCC
:1039100001D001272CE00AF102088DF8233088E15C
:103920009DF8203043F004038DF82030FFB108F1FA
:1039300001081CE09DF8203043F008038DF820308A
:10394000F4E79DF8203043F010038DF82030EDE7C8
:103950009DF8203043F020038DF82030E6E79DF8F5
:10396000203043F040038DF82030DFE700274FB3CD
:1039700098F80030203B102BF8D801A252F823F021
:10398000433900006D3900006D39000051390000E5
:103990006D3900006D3900006D3900006D3900008F
:1039A0006D3900006D3900006D39000035390000B7
:1039B0006D390000213900006D3900006D390000BB
:1039C0005F3900009DF8203003F04403442B4ED0B3
:1039D000CDF8148098F800302A2B4FD005A8FFF7B7
:1039E000EDFE059B984506D09DF8203043F08003FE
:1039F0008DF820300990059B059398461A782E2A59
:103A000015D103F10108CDF814805B782A2B44D03E
:103A100005A8FFF7D3FE059B984506D09DF82130F9
:103A200043F002038DF821300A90DDF8148098F8F5
:103A300000304C3B2E2B00F2DB80DFE803F0C9D9CD
:103A4000D9D9D9D9D9D9D9D9D9D9D9D9D9D9D9D9E6
:103A5000D9D9D9D9D9D9D9D9D9D937D969D950D971
:103A6000D9D9D9D9D9D9BFD9D9D9D9D9B5009DF8FA
:103A700020306FF386138DF82030A9E79DF82030B1
:103A800043F080038DF820309DF8213043F001038E
:103A90008DF8213043460133AEE79DF8213043F0E5
:103AA00006038DF8213008F10108C0E708F1010292
:103AB00098F80130682B08D09DF82130022161F37D
:103AC000C6038DF8213090462BE09DF8213001226D
:103AD00062F3C6038DF8213008F1020821E008F1F5
:103AE000010298F801306C2B08D09DF82130032199
:103AF00061F3C6038DF82130904612E09DF8213025
:103B0000042262F3C6038DF8213008F1020808E0B0
:103B10009DF82130052262F3C6038DF8213008F1AB
:103B2000010818F8013B8DF82330A3F14102372A30
:103B300000F25081DFE812F026014E014E014E01E5
:103B40002601260126014E014E014E014E014E0175
:103B50004E014E014E014E014E014E014E014E01ED
:103B60004E014E014E0113014E014E014E014E0118
:103B70004E014E014E014E0126014E01130163001C
:103B80002601260126014E0163004E014E014E0121
:103B90004E012F0113013F014E014E013F014E0125
:103BA00013014E014E0113019DF82130062262F3EC
:103BB000C6038DF8213008F10108B2E79DF82130E5
:103BC000072262F3C6038DF8213008F10108A8E747
:103BD0009DF82130082262F3C6038DF8213008F1E8
:103BE00001089DF8203043F002038DF8203098E75B
:103BF0009DF821306FF3C6038DF8213091E79DF8D1
:103C00002220012161F302028DF822209DF821205B
:103C100002F07802402A00F0AA80632B00F0AE8008
:103C20009DF82030C3F34002174367F341038DF83A
:103C300020309DF8213013F0010F00F0DA80039B53
:103C40001A1D03921F68002FC0F2CB809DF821300F
:103C500013F0040F00F0DF80039B1A1D0392D3F8CA
:103C600000B0BBF1000FC0F2CD80002309930A938E
:103C70009DF8223003F007039DF82110C1F3C30122
:103C8000012B00F0D180022B00F01681042B00F0F4
:103C90005B81032B00F072819DF8209019F00303E3
:103CA000029340F071819DF82330253B532B00F2A5
:103CB0002582DFE813F07501230223022302230289
:103CC00023022302230223022302230223022302CC
:103CD00023022302230223022302230223022302BC
:103CE00023022302230223022302230223022302AC
:103CF000230223022302230223022302230223029C
:103D0000230223022302230223022302230223028B
:103D1000230223022302230223022302B9012302E6
:103D2000230223022302230223022302230223026B
:103D3000230293019D0123022302230223029D01FA
:103D40002302230223022302FA01B901DC01230228
:103D5000230283012302B90123022302B9019DF842
:103D60002220022161F302028DF822204EE79DF805
:103D7000201041F001018DF820104EE7171E18BFEA
:103D800001274DE79DF82230042262F302038DF8EB
:103D90002230012744E79DF82230032262F3020318
:103DA0008DF822309DF8213003F07803402B7FF40A
:103DB00037AF012734E79DF82230032262F3020374
:103DC0008DF822309DF8213013F0780F3FF428AFA2
:103DD000012725E79DF8203043F001038DF82030BE
:103DE0001EE79DF8203043F004038DF820307F4219
:103DF0002CE79DF92030002B02DB4FF0FF3725E741
:103E0000099F23E79DF821306FF341038DF821309E
:103E10004FF0FF3B29E713F0020F02D0DDF828B086
:103E200023E74FF0FF3B20E7CB1E042B04D8DFE84D
:103E300003F00B1D29353500039B1A1D03921A68E8
:103E4000D317CDE9062306E0039B1A1D03921A68D7
:103E5000D317CDE90623012928D002297FF41CAF0E
:103E6000BDF91820D317CDE9062315E7039B0733C7
:103E700023F0070303F108020392D3E90023CDE9FD
:103E80000623E8E7039B073323F0070303F1080247
:103E90000392D3E90023CDE90623DCE7039B1A1D37
:103EA00003921A68D317CDE90623D4E79DF818309A
:103EB000069300230793EFE6CB1E042B04D8DFE81C
:103EC00003F00B1D29353500039B1A1D03921B6857
:103ED00006930023079306E0039B1A1D03921B68B9
:103EE000069300230793012928D002297FF4D4AE3A
:103EF000BDF81830069300230793CDE6039B0733E4
:103F000023F0070303F108020392D3E90023CDE96C
:103F10000623E8E7039B073323F0070303F10802B6
:103F20000392D3E90023CDE90623DCE7039B1A1DA6
:103F300003921B68069300230793D4E79DF818307B
:103F4000069300230793A7E608290BD0039B0733AA
:103F500023F0070303F108020392D3E90023CDE91C
:103F6000062399E6039B073323F0070303F10802B6
:103F70000392D3E90023CDE906238DE6039B1A1DA6
:103F800003921B68069387E643465246294630460D
:103F900021F0D9FC0028C0F24D810444C2469BE4C4
:103FA00029462520B0470028C0F244810134DDF8BD
:103FB00008900DF1460B4FF0000AA5E0DDF818A0BF
:103FC0005046FCF763FABBF1000F02DB834500D2D9
:103FD00058460AEB000BDDF8089095E0069B8DF83B
:103FE0003030DDF808900DF1310B0DF1300A8BE027
:103FF00019F0080F05D119F0100904D04FF020096D
:1040000001E04FF02B09DDE90623002A73F10001DE
:1040100002DBCDE9062309E0524263EB4303CDE91D
:1040200006234FF02D0901E0DDF808900DF146035D
:1040300000930CAB08AADDE90601FFF7D5FB824629
:10404000BBF1000FC0F290800DF14603A3EB0A0311
:104050009DF820206FF386128DF820209B4540F2BA
:104060008680ABEB030309930DF1460B4CE00698F9
:1040700030B9DDF80890DFF8C4B1ABF1050A43E0D0
:104080000DF1460300930CAB08AA0021FFF7ACFB2F
:1040900082469DF8223043F010038DF822307823B9
:1040A0008DF82330DDF80890CAE7069A9DF8213094
:1040B000C3F3C303072B06D8DFE803F0040C0E108C
:1040C00012171C1E1460DDF808900DF1460B4FF01E
:1040D000000A19E01470F6E71480F4E71460F2E7C0
:1040E0002046E117C2E90001EDE72046E117C2E9E9
:1040F0000001E8E71460E6E71460E4E7DDF8089003
:104100000DF1460B4FF0000ABAF1000F00F08E805F
:10411000ABEB0A02B9F1000F00D001329DF822107A
:1041200011F0100F26D00232099B134411F0400FFA
:1041300001D00A9A1344002F32DDFF1A9DF8203077
:1041400013F0040F2CD113F0400F18D0B9F1000F69
:1041500018D029464846B04700286BDB0134DDF80B
:104160000890302302930FE00DF1460BCCE70DF1E0
:10417000460BC9E711F0080FD6D00132D4E720234F
:10418000029301E0302302933B465F1E002B07DDC4
:1041900029460298B04700284CDB01343B46F4E73F
:1041A000B9F1000F05D029464846B047002841DB49
:1041B00001349DF82230C3F30012C3F3C00313434C
:1041C00005D029463020B047002833DB01349DF864
:1041D000223013F0100F06D029469DF82300B04777
:1041E000002827DB0134099B03F1FF39002B07DD91
:1041F00029463020B04700281CDB01344B46F3E74A
:104200005B4652462946304621F09DFB002811DBD3
:104210000444002F07DD29462020B047002809DB91
:104220000134013FF5E7C246FFF756BBC246FFF730
:1042300053BB204613B0BDE8F08F00BF311603001A
:10424000054B984204D3054B984203D30020704796
:104250000020704701207047AC0E03003C5F030054
:1042600008B5064B186018B1054B1B68092B00DC1C
:1042700008BD04481DF09CFEFAE700BF4818002066
:1042800018180020600E002008B502481DF090FEAE
:1042900008BD00BF600E002030B589B000220F4974
:1042A0000F482CF035FA0F4D00220023CDE90623EC
:1042B000002404940E2303930294019400940A4B67
:1042C0004FF44072094928462CF0CFF80849284697
:1042D0002CF0BAF8204609B030BD00BF894200007A
:1042E000581000209010002021480000B035002018
:1042F0003416030070B4034600200546044601E06E
:1043000084F0010413F8012B9AB18D4211D2252AB1
:10431000F6D0002CF6D0084E965D16F0030FF1D0C3
:10432000732A02D001350024ECE70122AA40104391
:10433000F8E770BC704700BF215C030008B500F0CF
:104340009BFC084821F01AFB042328220649074851
:104350002BF0F3FD064B074A1A604FF4004000F0C3
:10436000A1FE08BD24180020C85600202C180020EB
:10437000B0020020B159020038B5124B0024BFF33F
:104380005B8F53E8005F43E80042002AF9D1BFF396
:104390005B8F00E001340C4B0C4A9B1AB4EB231FDB
:1043A0000FDA0A4800EB041043685B79002BF1D068
:1043B0002301064AD358DB68002BEBD029469847E7
:1043C000E8E738BD1C1800204C1203003C12030023
:1043D000064BBFF35B8F53E8002F013243E8002107
:1043E0000029F8D1BFF35B8F704700BF1C18002075
:1043F000054B064A9B1AB1EBD30F02D252F831009B
:1044000070470020704700BF3C120300F410030007
:1044100008B50B4BC31A1B11013342681371436873
:104420001960436801225A71064B1B781BB1054B7A
:1044300001221A7008BD04481DF0BAFDF7E700BF5D
:104440003C120300A9330020600E002038B5154B44
:10445000BFF35B8F53E8002F511C43E80010002886
:10446000F8D1BFF35B8FDAB9002405E00422002104
:104470002846FFF7CDFF01340B4B0C4A9B1AB4EBD7
:10448000231F0DDA094D05EB04152B7B002BF2D011
:104490002301064AD3585B69002BE7D09847E5E72C
:1044A00038BD00BF201800204C1203003C1203004E
:1044B00070B582B00446FFF7C3FE10BB0022002394
:1044C00001A911481CF0F0FF08B1104C19E0019B44
:1044D0000122BFF35B8F53E8001F43E80020002850
:1044E000F9D1BFF35B8F019D2E1D1F22214630465F
:1044F0002CF05FFA7E2385F82330002385F82430E2
:104500003446204602B070BD2C1800203C16030033
:1045100038B1074A904206D3A032904205D300201A
:10452000704700207047002070470120704700BF8F
:10453000C8560020037A13F0010F00D070472DE910
:10454000F04383B0064621F0F2FA0746304621F0E8
:10455000D9FA01463846FFF7CDFE054604E00123AF
:1045600003FA04F425EA04056DB3B5FA85F4C4F141
:104570001F042146304621F0C8FA8146FFF760FE4D
:104580000028ECD14846FFF7C3FF0028E7D10F4BC6
:104590009945E4D071898909FFF72AFF0246012372
:1045A00063F302086FF3C508094B0A495B1AC3F3AA
:1045B000C90363F38F18ADF800803B4621460648D7
:1045C00000F07AF8CBE703B0BDE8F0833C160300B7
:1045D000E4110300F410030058160300F8B5064672
:1045E00019BB144B1B780BB1002403E0FFF7A2FFAB
:1045F000FAE70134104B114A9B1AB4EB231F14DA6B
:104600000E4D05EB04156B685B79002BF1D031463C
:10461000284621F0CBF90028EBD02701074BDB59C6
:104620001B68314628469847E3E7304621F081FA77
:10463000F8BD00BFAA3300204C1203003C12030057
:1046400038B50446184B1B7803B940B34FF020032C
:10465000EFF3118583F31188BFF36F8F134821F0B7
:104660009DF985F31188BFF36F8F70B1104BBFF3C5
:104670005B8F53E8002F013A43E800210029F8D16D
:10468000BFF35B8F2146FFF7A9FF14B9094B1B68E5
:1046900033B9064821F080F9003818BF012038BD31
:1046A000FFF76AFEF5E700BFA933002024180020B9
:1046B000181800201C1800202DE9F04182B0804617
:1046C0000F4616461D4600F0FBFA044640B1012392
:1046D0004360002202814FF0000362F30003037283
:1046E0004CB1C4F81080637A032262F3071363723B
:1046F0006761A661E561002C30D0BDF82030638190
:104700002A4B1B689847E060294BBFF35B8F53E847
:10471000002F013243E800210029F8D1BFF35B8F5D
:104720004FF02003EFF3118583F31188BFF36F8FF0
:104730002146204821F026F985F31188BFF36F8FB9
:104740001D4B1B786BB91D4B1B681BB1184A1268B7
:10475000012A16D0164A12680A2A1DD002B0BDE8F6
:10476000F0814FF02003EFF3118483F31188BFF33E
:104770006F8F0020FFF764FF84F31188BFF36F8F02
:10478000ECE700220023CDE900234FF40042002390
:104790000B481DF01DFFE1E7002BDFD008482BF090
:1047A000C3FF08481DF004FCD8E700BFB00200209A
:1047B0001818002024180020AA33002048180020D0
:1047C00058100020600E0020124B1B7803B1704778
:1047D00010B5FFF73BFE002400E001340E4B0F4AFA
:1047E0009B1AB4EB231F0CDA0C4800EB041043684F
:1047F0005B79002BF1D02301084AD3581B699847F5
:10480000EBE70020FFF71CFF0028FAD1014B012243
:104810001A7010BDAA3300204C1203003C12030092
:1048200008B5FFF713FE1DF0BDFBFFF719FD06E00D
:104830004FF0FF324FF0FF3304481DF0E1FB002042
:10484000FFF7FEFE0028FAD1F2E700BF600E00205D
:10485000F0B583B006460D46174600F031FA04461F
:1048600040B101234360002101814FF0000361F357
:104870000003037234B12661637A012262F30713E5
:1048800063726561002C2ED067812A4B1B689847A4
:10489000E060294BBFF35B8F53E8002F013243E800
:1048A00000210029F8D1BFF35B8F4FF02003EFF315
:1048B000118583F31188BFF36F8F21461F4821F0C4
:1048C00061F885F31188BFF36F8F1D4B1B7863B9B7
:1048D0001C4B1B681BB1184A1268012A15D0164AD6
:1048E00012680A2A1CD003B0F0BD4FF02003EFF38A
:1048F000118483F31188BFF36F8F0020FFF7A0FEB0
:1049000084F31188BFF36F8FEDE700220023CDE918
:1049100000234FF4004200230B481DF059FEE2E74C
:10492000002BE0D008482BF0FFFE08481DF040FBAC
:10493000D9E700BFB002002018180020241800207A
:10494000AA3300204818002058100020600E0020D4
:104950002DE9F04182B007460E461546984600F014
:10496000AFF9044640B101234360002202814FF0B9
:10497000000362F3000303723CB12761637A0222F1
:1049800062F3071363726661A561002C2FD0A4F84F
:104990000A802A4B1B689847E060294BBFF35B8F66
:1049A00053E8002F013243E800210029F8D1BFF37A
:1049B0005B8F4FF02003EFF3118583F31188BFF372
:1049C0006F8F21461F4820F0DDFF85F31188BFF36C
:1049D0006F8F1D4B1B786BB91C4B1B681BB1184AA2
:1049E0001268012A16D0164A12680A2A1DD002B08F
:1049F000BDE8F0814FF02003EFF3118483F31188B9
:104A0000BFF36F8F0020FFF71BFE84F31188BFF305
:104A10006F8FECE700220023CDE900234FF4004222
:104A200000230B481DF0D4FDE1E7002BDFD0084840
:104A30002BF07AFE07481DF0BBFAD8E7B002002041
:104A40001818002024180020AA330020481800203D
:104A500058100020600E002030B583B01C4621F0B5
:104A6000ACF800282FD0054644812A4B1B68984794
:104A7000E860294BBFF35B8F53E8002F013243E816
:104A800000210029F8D1BFF35B8F4FF02003EFF333
:104A9000118483F31188BFF36F8F29461F4820F0DC
:104AA00071FF84F31188BFF36F8F1D4B1B7863B9BF
:104AB0001C4B1B681BB1184A1268012A15D0164AF4
:104AC00012680A2A1CD003B030BD4FF02003EFF368
:104AD000118483F31188BFF36F8F0020FFF7B0FDBF
:104AE00084F31188BFF36F8FEDE700220023CDE937
:104AF00000234FF4004200230B481DF069FDE2E75C
:104B0000002BE0D008482BF00FFE08481DF050FAAB
:104B1000D9E700BFB0020020181800202418002098
:104B2000AA3300204818002058100020600E0020F2
:104B300070B582B005460E4600F0C2F8044640B19A
:104B400001234360002202814FF0000362F300035F
:104B5000037204B12561002C2ED06681294B1B689D
:104B60009847E060284BBFF35B8F53E8002F01327A
:104B700043E800210029F8D1BFF35B8F4FF02003F9
:104B8000EFF3118583F31188BFF36F8F21461F4820
:104B900020F0F8FE85F31188BFF36F8F1C4B1B7854
:104BA00063B91C4B1B681BB1174A1268012A15D048
:104BB000154A12680A2A1CD002B070BD4FF02003BB
:104BC000EFF3118483F31188BFF36F8F0020FFF799
:104BD00037FD84F31188BFF36F8FEDE700220023C8
:104BE000CDE900234FF4004200230B481DF0F0FCF8
:104BF000E2E7002BE0D008482BF096FD07481DF0B7
:104C0000D7F9D9E7B0020020181800202418002096
:104C1000AA3300204818002058100020600E002001
:104C200000B583B004380190BFF35B8F50E8003FBC
:104C30005A1E40E800210029F8D1BFF35B8F012BF9
:104C400002D003B05DF804FB01A902481CF062FC2D
:104C5000F7E700BF2C18002010B582B00190019B2F
:104C600033B11C6801A903481CF054FC0194F6E719
:104C700002B010BD4C18002008B520231A46024986
:104C800002482BF05AF908BD685700204C18002044
:104C900010B582B0002301930120FFF7D1FC044638
:104CA000FFF796FB0022002301A904481CF0FCFB3F
:104CB00008B1002CF0D1019802B010BD4C180020B2
:104CC00000B583B00023019320F076FE50B100229E
:104CD000002301A907481CF0E7FB30B9019803B095
:104CE0005DF804FB00220023F3E7FFF7D1FF0190FA
:104CF000F4E700BF4C180020F0B583B001900446E3
:104D000020F000FF237A13F0010F01D1064650BBBB
:104D1000019B1A7A12F0020F28D101A915481CF044
:104D2000F9FB03B0F0BD019820F001FF3146FFF719
:104D3000E1FA074688B9EBE72846FFF771FF01342F
:104D4000B442E5D22146019820F0DFFE0546FFF788
:104D5000DFFB0028F3D0002FE5D027FA04F313F08F
:104D6000010FECD0E8E700273C46E9E75869FFF778
:104D700073FFD2E74C1800200EB400B582B0014694
:104D800003AB53F8042B01930348FEF79DFD02B0DB
:104D90005DF804EB03B070475B5F0200F0B585B0CF
:104DA00011F0440F05D01A4B1C6834B9002005B02F
:104DB000F0BD1849FFF7E0FFF9E7174B1968B2FBA0
:104DC000F1F1B1FBF4F5154AA2FB0532D20A4FF41A
:104DD000616606FB1256124BA3FB06735B0904FBCC
:104DE00015114FF47A7505FB01F1B1FBF4F707FBE0
:104DF000141105FB01F1B1FBF4F402940197C3EB2C
:104E00000311A6EB810100910649FFF7B5FFCEE73C
:104E1000681800209C1603006C180020C5B3A291EE
:104E200089888888A816030061B108B52AB1064AA6
:104E300052F8232012B9054A00E0044A0449FFF75A
:104E40009BFF08BD704700BF1C170300C41603007A
:104E5000981D030011F0100F0BD108B511F0200FB1
:104E600003D00449FFF788FF08BD0349FFF784FF1B
:104E7000FAE770474C1D0300CC1603002DE9F04102
:104E800005460F46164698460699FFF7E3FF0024AD
:104E9000444505DA24492846FFF76EFF0134F7E759
:104EA000002409E020492846FFF766FF0BE01F4970
:104EB0002846FFF761FF01340F2C0CDC002C02DDCB
:104EC00014F0070FEED0B442F1D23A5D18492846EB
:104ED000FFF752FFEFE717492846FFF74DFF002481
:104EE00009E011492846FFF747FF0BE01249284621
:104EF000FFF742FF01340F2C13DC002C02DD14F00D
:104F0000070FEED0B44207D23A5D0C4BD35C13F0DE
:104F1000970FEBD12E22E9E703492846FFF72CFF34
:104F2000E8E7BDE8F08100BFF4160300D8160300DF
:104F3000D0160300DC160300E0160300215C03001A
:104F4000F8B5044616461D4649B9002786B1012327
:104F5000079A934013F0100F16D10C4E09E00C4B3A
:104F6000079A53F822200B49FFF706FF0746EDE7A3
:104F7000064E06992846FFF73BFA02463146204680
:104F8000FFF7FAFE3844F8BD034EF2E7E4160300DB
:104F900058170300F0160300EC1603002DE9F04348
:104FA00089B007460E469146984620F0C0FD02465D
:104FB0000E493046FFF7E0FE0024102503952346F6
:104FC00003AA0DEB0501384620F00BFE039A52B1FF
:104FD000CDF800804B460DEB05013046FFF74EFF44
:104FE000039D2C44E9E709B0BDE8F083981D030058
:104FF000F0B583B006460C4600273D460DE0A2689A
:10500000134413F8017C0A2F14BF00270127204600
:1050100020F096FF019B1D4473B1E36801932B467A
:1050200001AAA168304620F0DCFD6368019A1A608D
:10503000019B002BEBD0E2E70FB903B0F0BD0249B2
:105040002046FFF799FEF8E7F816030070B582B026
:105050000446056842F20F738B4228BF0B460E4A86
:10506000052168461FF0C4FF064663685B680B2293
:105070000A49284620F0BDFD63685B6832466946F0
:10508000284620F0B6FD63685B681B220449284669
:1050900020F0AFFD02B070BD9C2C03004C17030044
:1050A00030170300074B01221A60074B984205D9BD
:1050B0004008044A13685B001360F6E7034B18606E
:1050C000704700BF6C18002040420F006818002095
:1050D00070B506460D460024AC4207D2044B186852
:1050E000315D83685B6898470134F5E7284670BDF9
:1050F0008418002008B503481BF0B0FF024B18606D
:1051000008BD00BF6C1703008418002008B50248D2
:1051100020F016FF08BD00BFA017030008B5024825
:10512000FFF794FF08BD00BFA017030010B50C46A1
:10513000084620F0DAFC0F222146034820F029FF20
:10514000204620F0F6FC10BDA01703002DE9F8431F
:105150000F4B1D68CDB180460F4614460D4E4FF0E3
:10516000FF324FF0FF3330461CF0FEF96B68D3F886
:10517000089023463A4641462846C84704463046EA
:105180001CF07CFA2046BDE8F8836FF00104F9E7D3
:1051900090180020340E002030B585B0054600235D
:1051A0000293039301904FF0FF324FF0FF330D480D
:1051B0001CF0DAF90C4B1C684CB163681B6801A940
:1051C00020469847002CF7D02468002CF4D12846BC
:1051D00000F09EF8044603481CF050FA204605B043
:1051E00030BD00BF340E00208818002010B584B0F8
:1051F0000190029103924FF0FF324FF0FF330B48C2
:105200001CF0B2F90A4B1C684CB163681B6801A919
:1052100020469847002CF7D02468002CF4D103488E
:105220001CF02CFA002004B010BD00BF340E00208A
:1052300088180020024B00221A605A60704700BF95
:105240008818002008B5034B00221A605A60FFF747
:10525000F1FF08BD94180020F0B583B006460F4654
:1052600009B100230B60274C002504E00FB1019B1E
:105270003B6025461434244B9C4216D201AA216877
:10528000304620F0CFFE0028F4D0002DEED00022D2
:105290002968206820F0C6FE0028EBD01FB1019BD2
:1052A0003B602546E6E72546E4E7184B1C685CB101
:1052B000143C09E00FB1019B3B60254614F1140337
:1052C0001AD0646904B1143CC4B101AA2168304603
:1052D00020F0A8FE0028F1D0002DEBD00022296894
:1052E000206820F09FFE0028E8D01FB1019B3B60A2
:1052F0002546E3E72546E1E71C46E5E7284603B0F7
:10530000F0BD00BFB8100300F41003009418002093
:1053100070B505461B4C002600E014341A4B9C4225
:105320000FD235B100222946206820F07BFE0028EC
:10533000F3D0E368002BF0D09847002EEDD106465D
:10534000EBE7124B1C683CB1143C05E014F114036C
:1053500013D0646904B1143C8CB135B100222946E4
:10536000206820F05FFE0028F0D0E368002BEDD02D
:105370009847002EEAD10646E8E71C46ECE730469F
:1053800070BD00BFB8100300F41003009418002093
:1053900008B5074B1B780BB1002008BDFFF752FF83
:1053A00020F096FE0028F8D1014B01221A70F4E794
:1053B000AC33002030B585B00D46144603A9FFF785
:1053C0004BFF48B101950294856801AB044A214620
:1053D0000398A84705B030BD6FF01500FAE700BF8D
:1053E000B16002002DE9F8431E481BF00DFE814616
:1053F00000271D4B53F8273013B10137BFB2F8E730
:105400001A4B1F80002606E0194B23F81860A742AC
:105410001ED00136B6B24E4522D2124B1D6806EBA5
:10542000460305EBC3052B69002BF2D0114A9342CA
:10543000EFD00024A0460C4B53F824100029E6D0EE
:105440002868FBF719F80028DED00134A4B2F1E790
:10545000064A1388591C1180054A22F81360D8E7C0
:10546000BDE8F8839C180020D8170300983300206B
:10547000A018002061FD020010B504460A2807D0DC
:10548000074B1868E1B283685B689847204610BDF7
:10549000034B186883685B680D219847F0E700BFED
:1054A000C018002010B5044C204601F007FD20462E
:1054B000FEF7ACF810BD00BF7954000008B50448F1
:1054C0001BF0CCFD034B1860FFF7ECFF002008BD7C
:1054D0006C170300C0180020004870471419002002
:1054E000034BC01A8010034B03FB00F0704700BF52
:1054F000D4180020B76DDBB638B505460C46FFF76B
:10550000EFFF01464022034820F062FE0146284694
:10551000A04738BDC80C002030B583B005460C4606
:10552000FFF7DEFF0146402300932346054A064865
:1055300020F068FE011E01DB03B030BD2846A04705
:10554000FAE700BF4D620200C80C002000B587B02A
:10555000CDF800D0CDF804D00023029301230393AB
:1055600004AB049305936B46064A20F067FE0028BF
:1055700005DB4FF48042002368461CF041FD07B074
:105580005DF804FB5D62020008B5074B1B781BB198
:10559000002016F021F908BD4FF4A5702AF04EFF47
:1055A000014B01221A70F3E7AD33002010B54FF024
:1055B0002003EFF3118483F31188BFF36F8F134A35
:1055C000136843F00203136013F0010F08D10023A6
:1055D00084F31188BFF36F8F9BB920F050FE10BD8C
:1055E0004FF08043D3F80C24D3F80C3412F0010FA1
:1055F00001D10023ECE7FFF76FFF20F0C4FD01238A
:10560000E6E70021024820F0D1FDE8E72419002058
:10561000C80C002008B50A4BBFF35B8F53E8002F7E
:1056200022F0020143E800100028F7D1BFF35B8F9E
:1056300012F0010F00D008BD20F01CFEFBE700BFF8
:105640002419002070B5054600220121104600F003
:1056500079FE002000F044FE134816F0A9F8134B21
:1056600098421DD1E86800F0D7F923F009FF002423
:1056700003E00123B3601C44E4B2012C0ED82146A0
:10568000284620F02CFD06462146284620F034FD11
:1056900007491FF096FD0028EBDA00E0002070BDFE
:1056A0006FF00400FBE700BFB55600000000AD0B33
:1056B0003418030008B5012810D0032815D000B114
:1056C00008BD00210A4820F00AFD836813F0070F87
:1056D000F6D10021064820F069FDF1E720F0E5FD54
:1056E0000121034820F062FDEAE700F0ABF9E7E7AB
:1056F000C80C002070B505462AF09AFE20B9214B4F
:105700001B789BB1002300E001231C4683B14FF0BE
:105710002003EFF3118683F31188BFF36F8F6CB909
:105720004FF080430222C3F8082307E00123ECE78F
:105730000026F4E7CCB1304600F072FE4FF0804214
:10574000D2F8183403F00303D2F8182412F4803F7F
:1057500010D10022002AEDD00BB1012DEAD15CB1AD
:1057600086F31188BFF36F8F70BD212000211CF0DC
:10577000EDFBE3E70122EDE74FF080430222C3F89F
:105780000423F1E7C433002008B5C1B2014820F07A
:10579000B3FC08BDC80C002008B50A4BBFF35B8FF3
:1057A00053E8002F42F0010143E800100028F7D130
:1057B000BFF35B8F12F0020F00D008BD20F05FFD39
:1057C000FBE700BF2419002008B50A4BBFF35B8F2D
:1057D00053E8002F22F0010143E800100028F7D120
:1057E000BFF35B8F12F0020F00D008BD20F042FD26
:1057F000FBE700BF2419002010B50446104B01211F
:10580000BFF35B8F53E8002F43E800100028F9D165
:10581000BFF35B8F1AB1631E012B0CD910BD094871
:1058200020F06AFC084900234B60CB6001238B60A9
:105830001FF0E3FCEFE72046FFF75CFFEEE700BF59
:1058400028190020C80C0020C418002010B582B010
:1058500004460E4B18688368DB683821984730B9D6
:105860000A4B186883681B696A460C21984750B92F
:10587000019B074A82FB0312DB17C3EB2243009A0A
:1058800003EB8203238002B010BD00BF4419002047
:1058900083DE1B4308B5024B186820F0F5FC08BDF9
:1058A0004019002000B583B000220023CDE9002379
:1058B0004FF40032002305481CF08AFEFFF7EAFF90
:1058C000034B00221A6003B05DF804FBA80D002012
:1058D0002C19002008B5044B02221A6016F02EF88D
:1058E000024B01221A7008BD340C0040AE33002078
:1058F00000B583B00023ADF806300DF10600FFF7C8
:10590000A5FF80B10020124B1870114B1B780BB112
:10591000012812DD0F4BBDF806201A80FFF7DAFFD1
:1059200003B05DF804FBBDF906000A4BB3F9003083
:10593000C01A2AF0E7FF00B2E7E7013B044A137000
:10594000054A136801331360FFF7ACFFE8E700BFB7
:10595000AE3300209A3300204C19002008B50E4BBE
:105960001B6883B10D4BBFF35B8F53E8002F42F0F0
:10597000010143E800100028F7D1BFF35B8F12F05C
:10598000010F03D008BDFFF7A5FFFBE7A3F1080156
:1059900003482AF088FBF5E744190020140300208F
:1059A0008016002008B5034A0349044B186820F00C
:1059B0006FFC08BD5D59000030190020401900201F
:1059C00008B5094B0122BFF35B8F53E8001F002984
:1059D00003D143E800200028F7D1BFF35B8F01D14A
:1059E000FFF7E0FF08BD00BF2C19002008B5034BEE
:1059F00000221A70FFF7E4FF08BD00BFAE3300209D
:105A000008B503481BF02AFB024B1860002008BDB4
:105A10004018030044190020034B18600023034A78
:105A20001360034A13607047401900204819002092
:105A30004C19002008B502482AF076FE08BD00BFC8
:105A4000A80D002008B5034A136801331360FFF75F
:105A500029FF08BD4819002008B54FF000010123B7
:105A600063F302016FF3C501064B074A9B1AC3F3A8
:105A7000C90363F38F110548FFF75AF86FF08500EB
:105A800008BD00BF2C120300F410030048180300E7
:105A9000042901D10020704708B54FF0000101230F
:105AA00063F302016FF3C501064B074A9B1AC3F368
:105AB000C90363F38F110548FFF73AF86FF08500CB
:105AC00008BD00BF2C120300F410030048180300A7
:105AD00008B54FF00001022363F302016FF3C50123
